{
  "_format": "hh-sol-artifact-1",
  "contractName": "BaeCafe",
  "sourceName": "contracts/BaeCafe.sol",
  "abi": [
    {
      "inputs": [
        {
          "internalType": "string",
          "name": "_name",
          "type": "string"
        },
        {
          "internalType": "string",
          "name": "_symbol",
          "type": "string"
        },
        {
          "internalType": "uint256",
          "name": "maxSupply",
          "type": "uint256"
        },
        {
          "internalType": "bytes32",
          "name": "merkleRoot_",
          "type": "bytes32"
        }
      ],
      "stateMutability": "nonpayable",
      "type": "constructor"
    },
    {
      "anonymous": false,
      "inputs": [
        {
          "indexed": true,
          "internalType": "address",
          "name": "owner",
          "type": "address"
        },
        {
          "indexed": true,
          "internalType": "address",
          "name": "approved",
          "type": "address"
        },
        {
          "indexed": true,
          "internalType": "uint256",
          "name": "tokenId",
          "type": "uint256"
        }
      ],
      "name": "Approval",
      "type": "event"
    },
    {
      "anonymous": false,
      "inputs": [
        {
          "indexed": true,
          "internalType": "address",
          "name": "owner",
          "type": "address"
        },
        {
          "indexed": true,
          "internalType": "address",
          "name": "operator",
          "type": "address"
        },
        {
          "indexed": false,
          "internalType": "bool",
          "name": "approved",
          "type": "bool"
        }
      ],
      "name": "ApprovalForAll",
      "type": "event"
    },
    {
      "anonymous": false,
      "inputs": [
        {
          "indexed": true,
          "internalType": "address",
          "name": "previousOwner",
          "type": "address"
        },
        {
          "indexed": true,
          "internalType": "address",
          "name": "newOwner",
          "type": "address"
        }
      ],
      "name": "OwnershipTransferred",
      "type": "event"
    },
    {
      "anonymous": false,
      "inputs": [
        {
          "indexed": true,
          "internalType": "address",
          "name": "from",
          "type": "address"
        },
        {
          "indexed": true,
          "internalType": "address",
          "name": "to",
          "type": "address"
        },
        {
          "indexed": true,
          "internalType": "uint256",
          "name": "tokenId",
          "type": "uint256"
        }
      ],
      "name": "Transfer",
      "type": "event"
    },
    {
      "inputs": [],
      "name": "MAX_HANA",
      "outputs": [
        {
          "internalType": "uint256",
          "name": "",
          "type": "uint256"
        }
      ],
      "stateMutability": "view",
      "type": "function"
    },
    {
      "inputs": [
        {
          "internalType": "address",
          "name": "to",
          "type": "address"
        },
        {
          "internalType": "uint256",
          "name": "tokenId",
          "type": "uint256"
        }
      ],
      "name": "approve",
      "outputs": [],
      "stateMutability": "nonpayable",
      "type": "function"
    },
    {
      "inputs": [],
      "name": "baePrice",
      "outputs": [
        {
          "internalType": "uint256",
          "name": "",
          "type": "uint256"
        }
      ],
      "stateMutability": "view",
      "type": "function"
    },
    {
      "inputs": [
        {
          "internalType": "address",
          "name": "owner",
          "type": "address"
        }
      ],
      "name": "balanceOf",
      "outputs": [
        {
          "internalType": "uint256",
          "name": "",
          "type": "uint256"
        }
      ],
      "stateMutability": "view",
      "type": "function"
    },
    {
      "inputs": [],
      "name": "baseURI",
      "outputs": [
        {
          "internalType": "string",
          "name": "",
          "type": "string"
        }
      ],
      "stateMutability": "view",
      "type": "function"
    },
    {
      "inputs": [],
      "name": "countGiveaways",
      "outputs": [
        {
          "internalType": "uint256",
          "name": "",
          "type": "uint256"
        }
      ],
      "stateMutability": "view",
      "type": "function"
    },
    {
      "inputs": [],
      "name": "countMintedWhitelist",
      "outputs": [
        {
          "internalType": "uint256",
          "name": "",
          "type": "uint256"
        }
      ],
      "stateMutability": "view",
      "type": "function"
    },
    {
      "inputs": [],
      "name": "flipSaleState",
      "outputs": [],
      "stateMutability": "nonpayable",
      "type": "function"
    },
    {
      "inputs": [
        {
          "internalType": "uint256",
          "name": "tokenId",
          "type": "uint256"
        }
      ],
      "name": "getApproved",
      "outputs": [
        {
          "internalType": "address",
          "name": "",
          "type": "address"
        }
      ],
      "stateMutability": "view",
      "type": "function"
    },
    {
      "inputs": [
        {
          "internalType": "address",
          "name": "owner",
          "type": "address"
        },
        {
          "internalType": "address",
          "name": "operator",
          "type": "address"
        }
      ],
      "name": "isApprovedForAll",
      "outputs": [
        {
          "internalType": "bool",
          "name": "",
          "type": "bool"
        }
      ],
      "stateMutability": "view",
      "type": "function"
    },
    {
      "inputs": [],
      "name": "maxBaePurchase",
      "outputs": [
        {
          "internalType": "uint256",
          "name": "",
          "type": "uint256"
        }
      ],
      "stateMutability": "view",
      "type": "function"
    },
    {
      "inputs": [],
      "name": "merkleRoot",
      "outputs": [
        {
          "internalType": "bytes32",
          "name": "",
          "type": "bytes32"
        }
      ],
      "stateMutability": "view",
      "type": "function"
    },
    {
      "inputs": [
        {
          "internalType": "uint256",
          "name": "availableToMint",
          "type": "uint256"
        },
        {
          "internalType": "uint256",
          "name": "amountToMint",
          "type": "uint256"
        },
        {
          "internalType": "bytes32[]",
          "name": "merkleProof",
          "type": "bytes32[]"
        }
      ],
      "name": "mintWhitelist",
      "outputs": [],
      "stateMutability": "payable",
      "type": "function"
    },
    {
      "inputs": [
        {
          "internalType": "address",
          "name": "minter",
          "type": "address"
        }
      ],
      "name": "mintedOf",
      "outputs": [
        {
          "internalType": "uint256",
          "name": "",
          "type": "uint256"
        }
      ],
      "stateMutability": "view",
      "type": "function"
    },
    {
      "inputs": [],
      "name": "name",
      "outputs": [
        {
          "internalType": "string",
          "name": "",
          "type": "string"
        }
      ],
      "stateMutability": "view",
      "type": "function"
    },
    {
      "inputs": [],
      "name": "owner",
      "outputs": [
        {
          "internalType": "address",
          "name": "",
          "type": "address"
        }
      ],
      "stateMutability": "view",
      "type": "function"
    },
    {
      "inputs": [
        {
          "internalType": "uint256",
          "name": "tokenId",
          "type": "uint256"
        }
      ],
      "name": "ownerOf",
      "outputs": [
        {
          "internalType": "address",
          "name": "",
          "type": "address"
        }
      ],
      "stateMutability": "view",
      "type": "function"
    },
    {
      "inputs": [
        {
          "internalType": "address",
          "name": "to",
          "type": "address"
        }
      ],
      "name": "raffleGiveaway",
      "outputs": [],
      "stateMutability": "nonpayable",
      "type": "function"
    },
    {
      "inputs": [],
      "name": "renounceOwnership",
      "outputs": [],
      "stateMutability": "nonpayable",
      "type": "function"
    },
    {
      "inputs": [],
      "name": "reserveBaes",
      "outputs": [],
      "stateMutability": "nonpayable",
      "type": "function"
    },
    {
      "inputs": [
        {
          "internalType": "address",
          "name": "from",
          "type": "address"
        },
        {
          "internalType": "address",
          "name": "to",
          "type": "address"
        },
        {
          "internalType": "uint256",
          "name": "tokenId",
          "type": "uint256"
        }
      ],
      "name": "safeTransferFrom",
      "outputs": [],
      "stateMutability": "nonpayable",
      "type": "function"
    },
    {
      "inputs": [
        {
          "internalType": "address",
          "name": "from",
          "type": "address"
        },
        {
          "internalType": "address",
          "name": "to",
          "type": "address"
        },
        {
          "internalType": "uint256",
          "name": "tokenId",
          "type": "uint256"
        },
        {
          "internalType": "bytes",
          "name": "_data",
          "type": "bytes"
        }
      ],
      "name": "safeTransferFrom",
      "outputs": [],
      "stateMutability": "nonpayable",
      "type": "function"
    },
    {
      "inputs": [],
      "name": "saleIsActive",
      "outputs": [
        {
          "internalType": "bool",
          "name": "",
          "type": "bool"
        }
      ],
      "stateMutability": "view",
      "type": "function"
    },
    {
      "inputs": [
        {
          "internalType": "address",
          "name": "operator",
          "type": "address"
        },
        {
          "internalType": "bool",
          "name": "approved",
          "type": "bool"
        }
      ],
      "name": "setApprovalForAll",
      "outputs": [],
      "stateMutability": "nonpayable",
      "type": "function"
    },
    {
      "inputs": [
        {
          "internalType": "string",
          "name": "newURI",
          "type": "string"
        }
      ],
      "name": "setBaseURI",
      "outputs": [],
      "stateMutability": "nonpayable",
      "type": "function"
    },
    {
      "inputs": [
        {
          "internalType": "bytes32",
          "name": "merkleRoot_",
          "type": "bytes32"
        }
      ],
      "name": "setMerkleRoot",
      "outputs": [],
      "stateMutability": "nonpayable",
      "type": "function"
    },
    {
      "inputs": [
        {
          "internalType": "bytes4",
          "name": "interfaceId",
          "type": "bytes4"
        }
      ],
      "name": "supportsInterface",
      "outputs": [
        {
          "internalType": "bool",
          "name": "",
          "type": "bool"
        }
      ],
      "stateMutability": "view",
      "type": "function"
    },
    {
      "inputs": [],
      "name": "symbol",
      "outputs": [
        {
          "internalType": "string",
          "name": "",
          "type": "string"
        }
      ],
      "stateMutability": "view",
      "type": "function"
    },
    {
      "inputs": [
        {
          "internalType": "uint256",
          "name": "index",
          "type": "uint256"
        }
      ],
      "name": "tokenByIndex",
      "outputs": [
        {
          "internalType": "uint256",
          "name": "",
          "type": "uint256"
        }
      ],
      "stateMutability": "view",
      "type": "function"
    },
    {
      "inputs": [
        {
          "internalType": "address",
          "name": "owner",
          "type": "address"
        },
        {
          "internalType": "uint256",
          "name": "index",
          "type": "uint256"
        }
      ],
      "name": "tokenOfOwnerByIndex",
      "outputs": [
        {
          "internalType": "uint256",
          "name": "",
          "type": "uint256"
        }
      ],
      "stateMutability": "view",
      "type": "function"
    },
    {
      "inputs": [
        {
          "internalType": "uint256",
          "name": "tokenId",
          "type": "uint256"
        }
      ],
      "name": "tokenURI",
      "outputs": [
        {
          "internalType": "string",
          "name": "",
          "type": "string"
        }
      ],
      "stateMutability": "view",
      "type": "function"
    },
    {
      "inputs": [],
      "name": "totalGiveaways",
      "outputs": [
        {
          "internalType": "uint256",
          "name": "",
          "type": "uint256"
        }
      ],
      "stateMutability": "view",
      "type": "function"
    },
    {
      "inputs": [],
      "name": "totalSupply",
      "outputs": [
        {
          "internalType": "uint256",
          "name": "",
          "type": "uint256"
        }
      ],
      "stateMutability": "view",
      "type": "function"
    },
    {
      "inputs": [],
      "name": "totalWhitelistMint",
      "outputs": [
        {
          "internalType": "uint256",
          "name": "",
          "type": "uint256"
        }
      ],
      "stateMutability": "view",
      "type": "function"
    },
    {
      "inputs": [
        {
          "internalType": "address",
          "name": "from",
          "type": "address"
        },
        {
          "internalType": "address",
          "name": "to",
          "type": "address"
        },
        {
          "internalType": "uint256",
          "name": "tokenId",
          "type": "uint256"
        }
      ],
      "name": "transferFrom",
      "outputs": [],
      "stateMutability": "nonpayable",
      "type": "function"
    },
    {
      "inputs": [
        {
          "internalType": "address",
          "name": "newOwner",
          "type": "address"
        }
      ],
      "name": "transferOwnership",
      "outputs": [],
      "stateMutability": "nonpayable",
      "type": "function"
    },
    {
      "inputs": [],
      "name": "withdraw",
      "outputs": [],
      "stateMutability": "nonpayable",
      "type": "function"
    }
  ],
  "bytecode": "0x60a06040526000600c60006101000a81548160ff0219169083151502179055506000600e556000600f553480156200003657600080fd5b5060405162004eae38038062004eae83398181016040528101906200005c9190620002e9565b838381600090805190602001906200007692919062000199565b5080600190805190602001906200008f92919062000199565b505050620000b2620000a6620000cb60201b60201c565b620000d360201b60201c565b816080818152505080601081905550505050506200053f565b600033905090565b6000600a60009054906101000a900473ffffffffffffffffffffffffffffffffffffffff16905081600a60006101000a81548173ffffffffffffffffffffffffffffffffffffffff021916908373ffffffffffffffffffffffffffffffffffffffff1602179055508173ffffffffffffffffffffffffffffffffffffffff168173ffffffffffffffffffffffffffffffffffffffff167f8be0079c531659141344cd1fd0a4f28419497f9722a3daafe3b4186f6b6457e060405160405180910390a35050565b828054620001a79062000430565b90600052602060002090601f016020900481019282620001cb576000855562000217565b82601f10620001e657805160ff191683800117855562000217565b8280016001018555821562000217579182015b8281111562000216578251825591602001919060010190620001f9565b5b5090506200022691906200022a565b5090565b5b80821115620002455760008160009055506001016200022b565b5090565b6000620002606200025a84620003b0565b62000387565b9050828152602081018484840111156200027957600080fd5b62000286848285620003fa565b509392505050565b6000815190506200029f816200050b565b92915050565b600082601f830112620002b757600080fd5b8151620002c984826020860162000249565b91505092915050565b600081519050620002e38162000525565b92915050565b600080600080608085870312156200030057600080fd5b600085015167ffffffffffffffff8111156200031b57600080fd5b6200032987828801620002a5565b945050602085015167ffffffffffffffff8111156200034757600080fd5b6200035587828801620002a5565b93505060406200036887828801620002d2565b92505060606200037b878288016200028e565b91505092959194509250565b600062000393620003a6565b9050620003a1828262000466565b919050565b6000604051905090565b600067ffffffffffffffff821115620003ce57620003cd620004cb565b5b620003d982620004fa565b9050602081019050919050565b6000819050919050565b6000819050919050565b60005b838110156200041a578082015181840152602081019050620003fd565b838111156200042a576000848401525b50505050565b600060028204905060018216806200044957607f821691505b6020821081141562000460576200045f6200049c565b5b50919050565b6200047182620004fa565b810181811067ffffffffffffffff82111715620004935762000492620004cb565b5b80604052505050565b7f4e487b7100000000000000000000000000000000000000000000000000000000600052602260045260246000fd5b7f4e487b7100000000000000000000000000000000000000000000000000000000600052604160045260246000fd5b6000601f19601f8301169050919050565b6200051681620003e6565b81146200052257600080fd5b50565b6200053081620003f0565b81146200053c57600080fd5b50565b608051614945620005696000396000818161150e0152818161177e01526120af01526149456000f3fe60806040526004361061021a5760003560e01c80636b97fcf411610123578063b88d4fde116100ab578063eb8d24441161006f578063eb8d2444146107c3578063ee493824146107ee578063f2fde38b1461080a578063f83d636d14610833578063feae50b51461085e5761021a565b8063b88d4fde146106ca578063c58d03b0146106f3578063c87b56dd1461071e578063d5c7a1b51461075b578063e985e9c5146107865761021a565b80637cb64759116100f25780637cb64759146105f75780638da5cb5b1461062057806395d89b411461064b578063a22cb46514610676578063b0fd2cac1461069f5761021a565b80636b97fcf41461054d5780636c0360eb1461057857806370a08231146105a3578063715018a6146105e05761021a565b806334918dfd116101a65780634f6ccce7116101755780634f6ccce71461045657806355f804b314610493578063570e2ae3146104bc578063617692dd146104d35780636352211e146105105761021a565b806334918dfd146103d45780633ccfd60b146103eb57806342842e0e146104025780634c0cd78d1461042b5761021a565b806318160ddd116101ed57806318160ddd146102ed57806323b872dd146103185780632eb4a7ab146103415780632f745c591461036c5780633373a18c146103a95761021a565b806301ffc9a71461021f57806306fdde031461025c578063081812fc14610287578063095ea7b3146102c4575b600080fd5b34801561022b57600080fd5b50610246600480360381019061024191906133cd565b610887565b6040516102539190613a24565b60405180910390f35b34801561026857600080fd5b50610271610901565b60405161027e9190613a5a565b60405180910390f35b34801561029357600080fd5b506102ae60048036038101906102a99190613460565b610993565b6040516102bb91906139bd565b60405180910390f35b3480156102d057600080fd5b506102eb60048036038101906102e69190613368565b610a18565b005b3480156102f957600080fd5b50610302610b30565b60405161030f9190613d9c565b60405180910390f35b34801561032457600080fd5b5061033f600480360381019061033a9190613262565b610b3d565b005b34801561034d57600080fd5b50610356610b9d565b6040516103639190613a3f565b60405180910390f35b34801561037857600080fd5b50610393600480360381019061038e9190613368565b610ba3565b6040516103a09190613d9c565b60405180910390f35b3480156103b557600080fd5b506103be610c48565b6040516103cb9190613d9c565b60405180910390f35b3480156103e057600080fd5b506103e9610c4e565b005b3480156103f757600080fd5b50610400610cf6565b005b34801561040e57600080fd5b5061042960048036038101906104249190613262565b610dbb565b005b34801561043757600080fd5b50610440610ddb565b60405161044d9190613d9c565b60405180910390f35b34801561046257600080fd5b5061047d60048036038101906104789190613460565b610de1565b60405161048a9190613d9c565b60405180910390f35b34801561049f57600080fd5b506104ba60048036038101906104b5919061341f565b610e78565b005b3480156104c857600080fd5b506104d1610f0e565b005b3480156104df57600080fd5b506104fa60048036038101906104f591906131fd565b610fd1565b6040516105079190613d9c565b60405180910390f35b34801561051c57600080fd5b5061053760048036038101906105329190613460565b61101a565b60405161054491906139bd565b60405180910390f35b34801561055957600080fd5b506105626110cc565b60405161056f9190613d9c565b60405180910390f35b34801561058457600080fd5b5061058d6110d1565b60405161059a9190613a5a565b60405180910390f35b3480156105af57600080fd5b506105ca60048036038101906105c591906131fd565b61115f565b6040516105d79190613d9c565b60405180910390f35b3480156105ec57600080fd5b506105f5611217565b005b34801561060357600080fd5b5061061e600480360381019061061991906133a4565b61129f565b005b34801561062c57600080fd5b50610635611325565b60405161064291906139bd565b60405180910390f35b34801561065757600080fd5b5061066061134f565b60405161066d9190613a5a565b60405180910390f35b34801561068257600080fd5b5061069d6004803603810190610698919061332c565b6113e1565b005b3480156106ab57600080fd5b506106b46113f7565b6040516106c19190613d9c565b60405180910390f35b3480156106d657600080fd5b506106f160048036038101906106ec91906132b1565b6113fd565b005b3480156106ff57600080fd5b5061070861145f565b6040516107159190613d9c565b60405180910390f35b34801561072a57600080fd5b5061074560048036038101906107409190613460565b611465565b6040516107529190613a5a565b60405180910390f35b34801561076757600080fd5b5061077061150c565b60405161077d9190613d9c565b60405180910390f35b34801561079257600080fd5b506107ad60048036038101906107a89190613226565b611530565b6040516107ba9190613a24565b60405180910390f35b3480156107cf57600080fd5b506107d86115c4565b6040516107e59190613a24565b60405180910390f35b61080860048036038101906108039190613489565b6115d7565b005b34801561081657600080fd5b50610831600480360381019061082c91906131fd565b611952565b005b34801561083f57600080fd5b50610848611a4a565b6040516108559190613d9c565b60405180910390f35b34801561086a57600080fd5b50610885600480360381019061088091906131fd565b611a56565b005b60007f780e9d63000000000000000000000000000000000000000000000000000000007bffffffffffffffffffffffffffffffffffffffffffffffffffffffff1916827bffffffffffffffffffffffffffffffffffffffffffffffffffffffff191614806108fa57506108f982611b59565b5b9050919050565b60606000805461091090614056565b80601f016020809104026020016040519081016040528092919081815260200182805461093c90614056565b80156109895780601f1061095e57610100808354040283529160200191610989565b820191906000526020600020905b81548152906001019060200180831161096c57829003601f168201915b5050505050905090565b600061099e82611c3b565b6109dd576040517f08c379a00000000000000000000000000000000000000000000000000000000081526004016109d490613cbc565b60405180910390fd5b6004600083815260200190815260200160002060009054906101000a900473ffffffffffffffffffffffffffffffffffffffff169050919050565b6000610a238261101a565b90508073ffffffffffffffffffffffffffffffffffffffff168373ffffffffffffffffffffffffffffffffffffffff161415610a94576040517f08c379a0000000000000000000000000000000000000000000000000000000008152600401610a8b90613d1c565b60405180910390fd5b8073ffffffffffffffffffffffffffffffffffffffff16610ab3611ca7565b73ffffffffffffffffffffffffffffffffffffffff161480610ae25750610ae181610adc611ca7565b611530565b5b610b21576040517f08c379a0000000000000000000000000000000000000000000000000000000008152600401610b1890613c3c565b60405180910390fd5b610b2b8383611caf565b505050565b6000600880549050905090565b610b4e610b48611ca7565b82611d68565b610b8d576040517f08c379a0000000000000000000000000000000000000000000000000000000008152600401610b8490613d3c565b60405180910390fd5b610b98838383611e46565b505050565b60105481565b6000610bae8361115f565b8210610bef576040517f08c379a0000000000000000000000000000000000000000000000000000000008152600401610be690613a7c565b60405180910390fd5b600660008473ffffffffffffffffffffffffffffffffffffffff1673ffffffffffffffffffffffffffffffffffffffff168152602001908152602001600020600083815260200190815260200160002054905092915050565b600f5481565b610c56611ca7565b73ffffffffffffffffffffffffffffffffffffffff16610c74611325565b73ffffffffffffffffffffffffffffffffffffffff1614610cca576040517f08c379a0000000000000000000000000000000000000000000000000000000008152600401610cc190613cdc565b60405180910390fd5b600c60009054906101000a900460ff1615600c60006101000a81548160ff021916908315150217905550565b610cfe611ca7565b73ffffffffffffffffffffffffffffffffffffffff16610d1c611325565b73ffffffffffffffffffffffffffffffffffffffff1614610d72576040517f08c379a0000000000000000000000000000000000000000000000000000000008152600401610d6990613cdc565b60405180910390fd5b3373ffffffffffffffffffffffffffffffffffffffff166108fc479081150290604051600060405180830381858888f19350505050158015610db8573d6000803e3d6000fd5b50565b610dd6838383604051806020016040528060008152506113fd565b505050565b6109c481565b6000610deb610b30565b8210610e2c576040517f08c379a0000000000000000000000000000000000000000000000000000000008152600401610e2390613d5c565b60405180910390fd5b60088281548110610e66577f4e487b7100000000000000000000000000000000000000000000000000000000600052603260045260246000fd5b90600052602060002001549050919050565b610e80611ca7565b73ffffffffffffffffffffffffffffffffffffffff16610e9e611325565b73ffffffffffffffffffffffffffffffffffffffff1614610ef4576040517f08c379a0000000000000000000000000000000000000000000000000000000008152600401610eeb90613cdc565b60405180910390fd5b80600b9080519060200190610f0a929190612fc2565b5050565b610f16611ca7565b73ffffffffffffffffffffffffffffffffffffffff16610f34611325565b73ffffffffffffffffffffffffffffffffffffffff1614610f8a576040517f08c379a0000000000000000000000000000000000000000000000000000000008152600401610f8190613cdc565b60405180910390fd5b6000610f94610b30565b90506000600190505b609f8111610fcd57610fba338284610fb59190613e81565b6120ad565b8080610fc5906140b9565b915050610f9d565b5050565b6000600d60008373ffffffffffffffffffffffffffffffffffffffff1673ffffffffffffffffffffffffffffffffffffffff168152602001908152602001600020549050919050565b6000806002600084815260200190815260200160002060009054906101000a900473ffffffffffffffffffffffffffffffffffffffff169050600073ffffffffffffffffffffffffffffffffffffffff168173ffffffffffffffffffffffffffffffffffffffff1614156110c3576040517f08c379a00000000000000000000000000000000000000000000000000000000081526004016110ba90613c7c565b60405180910390fd5b80915050919050565b600481565b600b80546110de90614056565b80601f016020809104026020016040519081016040528092919081815260200182805461110a90614056565b80156111575780601f1061112c57610100808354040283529160200191611157565b820191906000526020600020905b81548152906001019060200180831161113a57829003601f168201915b505050505081565b60008073ffffffffffffffffffffffffffffffffffffffff168273ffffffffffffffffffffffffffffffffffffffff1614156111d0576040517f08c379a00000000000000000000000000000000000000000000000000000000081526004016111c790613c5c565b60405180910390fd5b600360008373ffffffffffffffffffffffffffffffffffffffff1673ffffffffffffffffffffffffffffffffffffffff168152602001908152602001600020549050919050565b61121f611ca7565b73ffffffffffffffffffffffffffffffffffffffff1661123d611325565b73ffffffffffffffffffffffffffffffffffffffff1614611293576040517f08c379a000000000000000000000000000000000000000000000000000000000815260040161128a90613cdc565b60405180910390fd5b61129d600061211e565b565b6112a7611ca7565b73ffffffffffffffffffffffffffffffffffffffff166112c5611325565b73ffffffffffffffffffffffffffffffffffffffff161461131b576040517f08c379a000000000000000000000000000000000000000000000000000000000815260040161131290613cdc565b60405180910390fd5b8060108190555050565b6000600a60009054906101000a900473ffffffffffffffffffffffffffffffffffffffff16905090565b60606001805461135e90614056565b80601f016020809104026020016040519081016040528092919081815260200182805461138a90614056565b80156113d75780601f106113ac576101008083540402835291602001916113d7565b820191906000526020600020905b8154815290600101906020018083116113ba57829003601f168201915b5050505050905090565b6113f36113ec611ca7565b83836121e4565b5050565b61019a81565b61140e611408611ca7565b83611d68565b61144d576040517f08c379a000000000000000000000000000000000000000000000000000000000815260040161144490613d3c565b60405180910390fd5b61145984848484612351565b50505050565b600e5481565b606061147082611c3b565b6114af576040517f08c379a00000000000000000000000000000000000000000000000000000000081526004016114a690613cfc565b60405180910390fd5b60006114b96123ad565b905060008151116114d95760405180602001604052806000815250611504565b806114e38461243f565b6040516020016114f4929190613999565b6040516020818303038152906040525b915050919050565b7f000000000000000000000000000000000000000000000000000000000000000081565b6000600560008473ffffffffffffffffffffffffffffffffffffffff1673ffffffffffffffffffffffffffffffffffffffff16815260200190815260200160002060008373ffffffffffffffffffffffffffffffffffffffff1673ffffffffffffffffffffffffffffffffffffffff16815260200190815260200160002060009054906101000a900460ff16905092915050565b600c60009054906101000a900460ff1681565b600c60009054906101000a900460ff16611626576040517f08c379a000000000000000000000000000000000000000000000000000000000815260040161161d90613bdc565b60405180910390fd5b600483600d60003373ffffffffffffffffffffffffffffffffffffffff1673ffffffffffffffffffffffffffffffffffffffff168152602001908152602001600020546116739190613e81565b111580156116cb57508383600d60003373ffffffffffffffffffffffffffffffffffffffff1673ffffffffffffffffffffffffffffffffffffffff168152602001908152602001600020546116c89190613e81565b11155b80156116db57506109c4600e5411155b61171a576040517f08c379a000000000000000000000000000000000000000000000000000000000815260040161171190613d7c565b60405180910390fd5b348367011c8055f19d000061172f9190613f08565b1115611770576040517f08c379a000000000000000000000000000000000000000000000000000000000815260040161176790613b9c565b60405180910390fd5b600061177a610b30565b90507f000000000000000000000000000000000000000000000000000000000000000084826117a99190613e81565b11156117ea576040517f08c379a00000000000000000000000000000000000000000000000000000000081526004016117e190613bbc565b60405180910390fd5b600033866040516020016117ff92919061396d565b604051602081830303815290604052805190602001209050611865848480806020026020016040519081016040528093929190818152602001838360200280828437600081840152601f19601f82011690508083019250505050505050601054836125ec565b6118a4576040517f08c379a000000000000000000000000000000000000000000000000000000000815260040161189b90613b7c565b60405180910390fd5b84600d60003373ffffffffffffffffffffffffffffffffffffffff1673ffffffffffffffffffffffffffffffffffffffff16815260200190815260200160002060008282546118f39190613e81565b9250508190555084600e600082825461190c9190613e81565b925050819055506000600190505b858111611949576119363382856119319190613e81565b6120ad565b8080611941906140b9565b91505061191a565b50505050505050565b61195a611ca7565b73ffffffffffffffffffffffffffffffffffffffff16611978611325565b73ffffffffffffffffffffffffffffffffffffffff16146119ce576040517f08c379a00000000000000000000000000000000000000000000000000000000081526004016119c590613cdc565b60405180910390fd5b600073ffffffffffffffffffffffffffffffffffffffff168173ffffffffffffffffffffffffffffffffffffffff161415611a3e576040517f08c379a0000000000000000000000000000000000000000000000000000000008152600401611a3590613abc565b60405180910390fd5b611a478161211e565b50565b67011c8055f19d000081565b611a5e611ca7565b73ffffffffffffffffffffffffffffffffffffffff16611a7c611325565b73ffffffffffffffffffffffffffffffffffffffff1614611ad2576040517f08c379a0000000000000000000000000000000000000000000000000000000008152600401611ac990613cdc565b60405180910390fd5b61019a600f541115611b19576040517f08c379a0000000000000000000000000000000000000000000000000000000008152600401611b1090613b1c565b60405180910390fd5b6000611b23610b30565b90506001600f6000828254611b389190613e81565b92505081905550611b5582600183611b509190613e81565b6120ad565b5050565b60007f80ac58cd000000000000000000000000000000000000000000000000000000007bffffffffffffffffffffffffffffffffffffffffffffffffffffffff1916827bffffffffffffffffffffffffffffffffffffffffffffffffffffffff19161480611c2457507f5b5e139f000000000000000000000000000000000000000000000000000000007bffffffffffffffffffffffffffffffffffffffffffffffffffffffff1916827bffffffffffffffffffffffffffffffffffffffffffffffffffffffff1916145b80611c345750611c3382612603565b5b9050919050565b60008073ffffffffffffffffffffffffffffffffffffffff166002600084815260200190815260200160002060009054906101000a900473ffffffffffffffffffffffffffffffffffffffff1673ffffffffffffffffffffffffffffffffffffffff1614159050919050565b600033905090565b816004600083815260200190815260200160002060006101000a81548173ffffffffffffffffffffffffffffffffffffffff021916908373ffffffffffffffffffffffffffffffffffffffff160217905550808273ffffffffffffffffffffffffffffffffffffffff16611d228361101a565b73ffffffffffffffffffffffffffffffffffffffff167f8c5be1e5ebec7d5bd14f71427d1e84f3dd0314c0f7b2291e5b200ac8c7c3b92560405160405180910390a45050565b6000611d7382611c3b565b611db2576040517f08c379a0000000000000000000000000000000000000000000000000000000008152600401611da990613bfc565b60405180910390fd5b6000611dbd8361101a565b90508073ffffffffffffffffffffffffffffffffffffffff168473ffffffffffffffffffffffffffffffffffffffff161480611e2c57508373ffffffffffffffffffffffffffffffffffffffff16611e1484610993565b73ffffffffffffffffffffffffffffffffffffffff16145b80611e3d5750611e3c8185611530565b5b91505092915050565b8273ffffffffffffffffffffffffffffffffffffffff16611e668261101a565b73ffffffffffffffffffffffffffffffffffffffff1614611ebc576040517f08c379a0000000000000000000000000000000000000000000000000000000008152600401611eb390613adc565b60405180910390fd5b600073ffffffffffffffffffffffffffffffffffffffff168273ffffffffffffffffffffffffffffffffffffffff161415611f2c576040517f08c379a0000000000000000000000000000000000000000000000000000000008152600401611f2390613b3c565b60405180910390fd5b611f3783838361266d565b611f42600082611caf565b6001600360008573ffffffffffffffffffffffffffffffffffffffff1673ffffffffffffffffffffffffffffffffffffffff1681526020019081526020016000206000828254611f929190613f62565b925050819055506001600360008473ffffffffffffffffffffffffffffffffffffffff1673ffffffffffffffffffffffffffffffffffffffff1681526020019081526020016000206000828254611fe99190613e81565b92505081905550816002600083815260200190815260200160002060006101000a81548173ffffffffffffffffffffffffffffffffffffffff021916908373ffffffffffffffffffffffffffffffffffffffff160217905550808273ffffffffffffffffffffffffffffffffffffffff168473ffffffffffffffffffffffffffffffffffffffff167fddf252ad1be2c89b69c2b068fc378daa952ba7f163c4a11628f55a4df523b3ef60405160405180910390a46120a8838383612781565b505050565b7f0000000000000000000000000000000000000000000000000000000000000000811115612110576040517f08c379a000000000000000000000000000000000000000000000000000000000815260040161210790613c1c565b60405180910390fd5b61211a8282612786565b5050565b6000600a60009054906101000a900473ffffffffffffffffffffffffffffffffffffffff16905081600a60006101000a81548173ffffffffffffffffffffffffffffffffffffffff021916908373ffffffffffffffffffffffffffffffffffffffff1602179055508173ffffffffffffffffffffffffffffffffffffffff168173ffffffffffffffffffffffffffffffffffffffff167f8be0079c531659141344cd1fd0a4f28419497f9722a3daafe3b4186f6b6457e060405160405180910390a35050565b8173ffffffffffffffffffffffffffffffffffffffff168373ffffffffffffffffffffffffffffffffffffffff161415612253576040517f08c379a000000000000000000000000000000000000000000000000000000000815260040161224a90613b5c565b60405180910390fd5b80600560008573ffffffffffffffffffffffffffffffffffffffff1673ffffffffffffffffffffffffffffffffffffffff16815260200190815260200160002060008473ffffffffffffffffffffffffffffffffffffffff1673ffffffffffffffffffffffffffffffffffffffff16815260200190815260200160002060006101000a81548160ff0219169083151502179055508173ffffffffffffffffffffffffffffffffffffffff168373ffffffffffffffffffffffffffffffffffffffff167f17307eab39ab6107e8899845ad3d59bd9653f200f220920489ca2b5937696c31836040516123449190613a24565b60405180910390a3505050565b61235c848484611e46565b612368848484846127a4565b6123a7576040517f08c379a000000000000000000000000000000000000000000000000000000000815260040161239e90613a9c565b60405180910390fd5b50505050565b6060600b80546123bc90614056565b80601f01602080910402602001604051908101604052809291908181526020018280546123e890614056565b80156124355780601f1061240a57610100808354040283529160200191612435565b820191906000526020600020905b81548152906001019060200180831161241857829003601f168201915b5050505050905090565b60606000821415612487576040518060400160405280600181526020017f300000000000000000000000000000000000000000000000000000000000000081525090506125e7565b600082905060005b600082146124b95780806124a2906140b9565b915050600a826124b29190613ed7565b915061248f565b60008167ffffffffffffffff8111156124fb577f4e487b7100000000000000000000000000000000000000000000000000000000600052604160045260246000fd5b6040519080825280601f01601f19166020018201604052801561252d5781602001600182028036833780820191505090505b5090505b600085146125e0576001826125469190613f62565b9150600a856125559190614130565b60306125619190613e81565b60f81b81838151811061259d577f4e487b7100000000000000000000000000000000000000000000000000000000600052603260045260246000fd5b60200101907effffffffffffffffffffffffffffffffffffffffffffffffffffffffffffff1916908160001a905350600a856125d99190613ed7565b9450612531565b8093505050505b919050565b6000826125f9858461293b565b1490509392505050565b60007f01ffc9a7000000000000000000000000000000000000000000000000000000007bffffffffffffffffffffffffffffffffffffffffffffffffffffffff1916827bffffffffffffffffffffffffffffffffffffffffffffffffffffffff1916149050919050565b6126788383836129d6565b600073ffffffffffffffffffffffffffffffffffffffff168373ffffffffffffffffffffffffffffffffffffffff1614156126bb576126b6816129db565b6126fa565b8173ffffffffffffffffffffffffffffffffffffffff168373ffffffffffffffffffffffffffffffffffffffff16146126f9576126f88382612a24565b5b5b600073ffffffffffffffffffffffffffffffffffffffff168273ffffffffffffffffffffffffffffffffffffffff16141561273d5761273881612b91565b61277c565b8273ffffffffffffffffffffffffffffffffffffffff168273ffffffffffffffffffffffffffffffffffffffff161461277b5761277a8282612cd4565b5b5b505050565b505050565b6127a0828260405180602001604052806000815250612d53565b5050565b60006127c58473ffffffffffffffffffffffffffffffffffffffff16612dae565b1561292e578373ffffffffffffffffffffffffffffffffffffffff1663150b7a026127ee611ca7565b8786866040518563ffffffff1660e01b815260040161281094939291906139d8565b602060405180830381600087803b15801561282a57600080fd5b505af192505050801561285b57506040513d601f19601f8201168201806040525081019061285891906133f6565b60015b6128de573d806000811461288b576040519150601f19603f3d011682016040523d82523d6000602084013e612890565b606091505b506000815114156128d6576040517f08c379a00000000000000000000000000000000000000000000000000000000081526004016128cd90613a9c565b60405180910390fd5b805181602001fd5b63150b7a0260e01b7bffffffffffffffffffffffffffffffffffffffffffffffffffffffff1916817bffffffffffffffffffffffffffffffffffffffffffffffffffffffff191614915050612933565b600190505b949350505050565b60008082905060005b84518110156129cb576000858281518110612988577f4e487b7100000000000000000000000000000000000000000000000000000000600052603260045260246000fd5b602002602001015190508083116129aa576129a38382612dd1565b92506129b7565b6129b48184612dd1565b92505b5080806129c3906140b9565b915050612944565b508091505092915050565b505050565b6008805490506009600083815260200190815260200160002081905550600881908060018154018082558091505060019003906000526020600020016000909190919091505550565b60006001612a318461115f565b612a3b9190613f62565b9050600060076000848152602001908152602001600020549050818114612b20576000600660008673ffffffffffffffffffffffffffffffffffffffff1673ffffffffffffffffffffffffffffffffffffffff168152602001908152602001600020600084815260200190815260200160002054905080600660008773ffffffffffffffffffffffffffffffffffffffff1673ffffffffffffffffffffffffffffffffffffffff168152602001908152602001600020600084815260200190815260200160002081905550816007600083815260200190815260200160002081905550505b6007600084815260200190815260200160002060009055600660008573ffffffffffffffffffffffffffffffffffffffff1673ffffffffffffffffffffffffffffffffffffffff16815260200190815260200160002060008381526020019081526020016000206000905550505050565b60006001600880549050612ba59190613f62565b9050600060096000848152602001908152602001600020549050600060088381548110612bfb577f4e487b7100000000000000000000000000000000000000000000000000000000600052603260045260246000fd5b906000526020600020015490508060088381548110612c43577f4e487b7100000000000000000000000000000000000000000000000000000000600052603260045260246000fd5b906000526020600020018190555081600960008381526020019081526020016000208190555060096000858152602001908152602001600020600090556008805480612cb8577f4e487b7100000000000000000000000000000000000000000000000000000000600052603160045260246000fd5b6001900381819060005260206000200160009055905550505050565b6000612cdf8361115f565b905081600660008573ffffffffffffffffffffffffffffffffffffffff1673ffffffffffffffffffffffffffffffffffffffff168152602001908152602001600020600083815260200190815260200160002081905550806007600084815260200190815260200160002081905550505050565b612d5d8383612de8565b612d6a60008484846127a4565b612da9576040517f08c379a0000000000000000000000000000000000000000000000000000000008152600401612da090613a9c565b60405180910390fd5b505050565b6000808273ffffffffffffffffffffffffffffffffffffffff163b119050919050565b600082600052816020526040600020905092915050565b600073ffffffffffffffffffffffffffffffffffffffff168273ffffffffffffffffffffffffffffffffffffffff161415612e58576040517f08c379a0000000000000000000000000000000000000000000000000000000008152600401612e4f90613c9c565b60405180910390fd5b612e6181611c3b565b15612ea1576040517f08c379a0000000000000000000000000000000000000000000000000000000008152600401612e9890613afc565b60405180910390fd5b612ead6000838361266d565b6001600360008473ffffffffffffffffffffffffffffffffffffffff1673ffffffffffffffffffffffffffffffffffffffff1681526020019081526020016000206000828254612efd9190613e81565b92505081905550816002600083815260200190815260200160002060006101000a81548173ffffffffffffffffffffffffffffffffffffffff021916908373ffffffffffffffffffffffffffffffffffffffff160217905550808273ffffffffffffffffffffffffffffffffffffffff16600073ffffffffffffffffffffffffffffffffffffffff167fddf252ad1be2c89b69c2b068fc378daa952ba7f163c4a11628f55a4df523b3ef60405160405180910390a4612fbe60008383612781565b5050565b828054612fce90614056565b90600052602060002090601f016020900481019282612ff05760008555613037565b82601f1061300957805160ff1916838001178555613037565b82800160010185558215613037579182015b8281111561303657825182559160200191906001019061301b565b5b5090506130449190613048565b5090565b5b80821115613061576000816000905550600101613049565b5090565b600061307861307384613ddc565b613db7565b90508281526020810184848401111561309057600080fd5b61309b848285614014565b509392505050565b60006130b66130b184613e0d565b613db7565b9050828152602081018484840111156130ce57600080fd5b6130d9848285614014565b509392505050565b6000813590506130f08161489c565b92915050565b60008083601f84011261310857600080fd5b8235905067ffffffffffffffff81111561312157600080fd5b60208301915083602082028301111561313957600080fd5b9250929050565b60008135905061314f816148b3565b92915050565b600081359050613164816148ca565b92915050565b600081359050613179816148e1565b92915050565b60008151905061318e816148e1565b92915050565b600082601f8301126131a557600080fd5b81356131b5848260208601613065565b91505092915050565b600082601f8301126131cf57600080fd5b81356131df8482602086016130a3565b91505092915050565b6000813590506131f7816148f8565b92915050565b60006020828403121561320f57600080fd5b600061321d848285016130e1565b91505092915050565b6000806040838503121561323957600080fd5b6000613247858286016130e1565b9250506020613258858286016130e1565b9150509250929050565b60008060006060848603121561327757600080fd5b6000613285868287016130e1565b9350506020613296868287016130e1565b92505060406132a7868287016131e8565b9150509250925092565b600080600080608085870312156132c757600080fd5b60006132d5878288016130e1565b94505060206132e6878288016130e1565b93505060406132f7878288016131e8565b925050606085013567ffffffffffffffff81111561331457600080fd5b61332087828801613194565b91505092959194509250565b6000806040838503121561333f57600080fd5b600061334d858286016130e1565b925050602061335e85828601613140565b9150509250929050565b6000806040838503121561337b57600080fd5b6000613389858286016130e1565b925050602061339a858286016131e8565b9150509250929050565b6000602082840312156133b657600080fd5b60006133c484828501613155565b91505092915050565b6000602082840312156133df57600080fd5b60006133ed8482850161316a565b91505092915050565b60006020828403121561340857600080fd5b60006134168482850161317f565b91505092915050565b60006020828403121561343157600080fd5b600082013567ffffffffffffffff81111561344b57600080fd5b613457848285016131be565b91505092915050565b60006020828403121561347257600080fd5b6000613480848285016131e8565b91505092915050565b6000806000806060858703121561349f57600080fd5b60006134ad878288016131e8565b94505060206134be878288016131e8565b935050604085013567ffffffffffffffff8111156134db57600080fd5b6134e7878288016130f6565b925092505092959194509250565b6134fe81613f96565b82525050565b61351561351082613f96565b614102565b82525050565b61352481613fa8565b82525050565b61353381613fb4565b82525050565b600061354482613e3e565b61354e8185613e54565b935061355e818560208601614023565b6135678161421d565b840191505092915050565b600061357d82613e49565b6135878185613e65565b9350613597818560208601614023565b6135a08161421d565b840191505092915050565b60006135b682613e49565b6135c08185613e76565b93506135d0818560208601614023565b80840191505092915050565b60006135e9602b83613e65565b91506135f48261423b565b604082019050919050565b600061360c603283613e65565b91506136178261428a565b604082019050919050565b600061362f602683613e65565b915061363a826142d9565b604082019050919050565b6000613652602583613e65565b915061365d82614328565b604082019050919050565b6000613675601c83613e65565b915061368082614377565b602082019050919050565b6000613698602983613e65565b91506136a3826143a0565b604082019050919050565b60006136bb602483613e65565b91506136c6826143ef565b604082019050919050565b60006136de601983613e65565b91506136e98261443e565b602082019050919050565b6000613701601583613e65565b915061370c82614467565b602082019050919050565b6000613724601f83613e65565b915061372f82614490565b602082019050919050565b6000613747602883613e65565b9150613752826144b9565b604082019050919050565b600061376a601f83613e65565b915061377582614508565b602082019050919050565b600061378d602c83613e65565b915061379882614531565b604082019050919050565b60006137b0600a83613e65565b91506137bb82614580565b602082019050919050565b60006137d3603883613e65565b91506137de826145a9565b604082019050919050565b60006137f6602a83613e65565b9150613801826145f8565b604082019050919050565b6000613819602983613e65565b915061382482614647565b604082019050919050565b600061383c602083613e65565b915061384782614696565b602082019050919050565b600061385f602c83613e65565b915061386a826146bf565b604082019050919050565b6000613882602083613e65565b915061388d8261470e565b602082019050919050565b60006138a5602f83613e65565b91506138b082614737565b604082019050919050565b60006138c8602183613e65565b91506138d382614786565b604082019050919050565b60006138eb603183613e65565b91506138f6826147d5565b604082019050919050565b600061390e602c83613e65565b915061391982614824565b604082019050919050565b6000613931601783613e65565b915061393c82614873565b602082019050919050565b6139508161400a565b82525050565b6139676139628261400a565b614126565b82525050565b60006139798285613504565b6014820191506139898284613956565b6020820191508190509392505050565b60006139a582856135ab565b91506139b182846135ab565b91508190509392505050565b60006020820190506139d260008301846134f5565b92915050565b60006080820190506139ed60008301876134f5565b6139fa60208301866134f5565b613a076040830185613947565b8181036060830152613a198184613539565b905095945050505050565b6000602082019050613a39600083018461351b565b92915050565b6000602082019050613a54600083018461352a565b92915050565b60006020820190508181036000830152613a748184613572565b905092915050565b60006020820190508181036000830152613a95816135dc565b9050919050565b60006020820190508181036000830152613ab5816135ff565b9050919050565b60006020820190508181036000830152613ad581613622565b9050919050565b60006020820190508181036000830152613af581613645565b9050919050565b60006020820190508181036000830152613b1581613668565b9050919050565b60006020820190508181036000830152613b358161368b565b9050919050565b60006020820190508181036000830152613b55816136ae565b9050919050565b60006020820190508181036000830152613b75816136d1565b9050919050565b60006020820190508181036000830152613b95816136f4565b9050919050565b60006020820190508181036000830152613bb581613717565b9050919050565b60006020820190508181036000830152613bd58161373a565b9050919050565b60006020820190508181036000830152613bf58161375d565b9050919050565b60006020820190508181036000830152613c1581613780565b9050919050565b60006020820190508181036000830152613c35816137a3565b9050919050565b60006020820190508181036000830152613c55816137c6565b9050919050565b60006020820190508181036000830152613c75816137e9565b9050919050565b60006020820190508181036000830152613c958161380c565b9050919050565b60006020820190508181036000830152613cb58161382f565b9050919050565b60006020820190508181036000830152613cd581613852565b9050919050565b60006020820190508181036000830152613cf581613875565b9050919050565b60006020820190508181036000830152613d1581613898565b9050919050565b60006020820190508181036000830152613d35816138bb565b9050919050565b60006020820190508181036000830152613d55816138de565b9050919050565b60006020820190508181036000830152613d7581613901565b9050919050565b60006020820190508181036000830152613d9581613924565b9050919050565b6000602082019050613db16000830184613947565b92915050565b6000613dc1613dd2565b9050613dcd8282614088565b919050565b6000604051905090565b600067ffffffffffffffff821115613df757613df66141ee565b5b613e008261421d565b9050602081019050919050565b600067ffffffffffffffff821115613e2857613e276141ee565b5b613e318261421d565b9050602081019050919050565b600081519050919050565b600081519050919050565b600082825260208201905092915050565b600082825260208201905092915050565b600081905092915050565b6000613e8c8261400a565b9150613e978361400a565b9250827fffffffffffffffffffffffffffffffffffffffffffffffffffffffffffffffff03821115613ecc57613ecb614161565b5b828201905092915050565b6000613ee28261400a565b9150613eed8361400a565b925082613efd57613efc614190565b5b828204905092915050565b6000613f138261400a565b9150613f1e8361400a565b9250817fffffffffffffffffffffffffffffffffffffffffffffffffffffffffffffffff0483118215151615613f5757613f56614161565b5b828202905092915050565b6000613f6d8261400a565b9150613f788361400a565b925082821015613f8b57613f8a614161565b5b828203905092915050565b6000613fa182613fea565b9050919050565b60008115159050919050565b6000819050919050565b60007fffffffff0000000000000000000000000000000000000000000000000000000082169050919050565b600073ffffffffffffffffffffffffffffffffffffffff82169050919050565b6000819050919050565b82818337600083830152505050565b60005b83811015614041578082015181840152602081019050614026565b83811115614050576000848401525b50505050565b6000600282049050600182168061406e57607f821691505b60208210811415614082576140816141bf565b5b50919050565b6140918261421d565b810181811067ffffffffffffffff821117156140b0576140af6141ee565b5b80604052505050565b60006140c48261400a565b91507fffffffffffffffffffffffffffffffffffffffffffffffffffffffffffffffff8214156140f7576140f6614161565b5b600182019050919050565b600061410d82614114565b9050919050565b600061411f8261422e565b9050919050565b6000819050919050565b600061413b8261400a565b91506141468361400a565b92508261415657614155614190565b5b828206905092915050565b7f4e487b7100000000000000000000000000000000000000000000000000000000600052601160045260246000fd5b7f4e487b7100000000000000000000000000000000000000000000000000000000600052601260045260246000fd5b7f4e487b7100000000000000000000000000000000000000000000000000000000600052602260045260246000fd5b7f4e487b7100000000000000000000000000000000000000000000000000000000600052604160045260246000fd5b6000601f19601f8301169050919050565b60008160601b9050919050565b7f455243373231456e756d657261626c653a206f776e657220696e646578206f7560008201527f74206f6620626f756e6473000000000000000000000000000000000000000000602082015250565b7f4552433732313a207472616e7366657220746f206e6f6e20455243373231526560008201527f63656976657220696d706c656d656e7465720000000000000000000000000000602082015250565b7f4f776e61626c653a206e6577206f776e657220697320746865207a65726f206160008201527f6464726573730000000000000000000000000000000000000000000000000000602082015250565b7f4552433732313a207472616e736665722066726f6d20696e636f72726563742060008201527f6f776e6572000000000000000000000000000000000000000000000000000000602082015250565b7f4552433732313a20746f6b656e20616c7265616479206d696e74656400000000600082015250565b7f526166666c65476976656177617920776f756c6420657863656564206d61782060008201527f6769766561776179730000000000000000000000000000000000000000000000602082015250565b7f4552433732313a207472616e7366657220746f20746865207a65726f2061646460008201527f7265737300000000000000000000000000000000000000000000000000000000602082015250565b7f4552433732313a20617070726f766520746f2063616c6c657200000000000000600082015250565b7f496e76616c6964204d65726b6c652050726f6f662e0000000000000000000000600082015250565b7f45746865722076616c75652073656e74206973206e6f7420636f727265637400600082015250565b7f507572636861736520776f756c6420657863656564206d617820737570706c7960008201527f206f662042616573000000000000000000000000000000000000000000000000602082015250565b7f53616c65206d7573742062652061637469766520746f206d696e742042616500600082015250565b7f4552433732313a206f70657261746f7220717565727920666f72206e6f6e657860008201527f697374656e7420746f6b656e0000000000000000000000000000000000000000602082015250565b7f4d617820737570706c7900000000000000000000000000000000000000000000600082015250565b7f4552433732313a20617070726f76652063616c6c6572206973206e6f74206f7760008201527f6e6572206e6f7220617070726f76656420666f7220616c6c0000000000000000602082015250565b7f4552433732313a2062616c616e636520717565727920666f7220746865207a6560008201527f726f206164647265737300000000000000000000000000000000000000000000602082015250565b7f4552433732313a206f776e657220717565727920666f72206e6f6e657869737460008201527f656e7420746f6b656e0000000000000000000000000000000000000000000000602082015250565b7f4552433732313a206d696e7420746f20746865207a65726f2061646472657373600082015250565b7f4552433732313a20617070726f76656420717565727920666f72206e6f6e657860008201527f697374656e7420746f6b656e0000000000000000000000000000000000000000602082015250565b7f4f776e61626c653a2063616c6c6572206973206e6f7420746865206f776e6572600082015250565b7f4552433732314d657461646174613a2055524920717565727920666f72206e6f60008201527f6e6578697374656e7420746f6b656e0000000000000000000000000000000000602082015250565b7f4552433732313a20617070726f76616c20746f2063757272656e74206f776e6560008201527f7200000000000000000000000000000000000000000000000000000000000000602082015250565b7f4552433732313a207472616e736665722063616c6c6572206973206e6f74206f60008201527f776e6572206e6f7220617070726f766564000000000000000000000000000000602082015250565b7f455243373231456e756d657261626c653a20676c6f62616c20696e646578206f60008201527f7574206f6620626f756e64730000000000000000000000000000000000000000602082015250565b7f547279696e6720746f206d696e7420746f6f206d616e79000000000000000000600082015250565b6148a581613f96565b81146148b057600080fd5b50565b6148bc81613fa8565b81146148c757600080fd5b50565b6148d381613fb4565b81146148de57600080fd5b50565b6148ea81613fbe565b81146148f557600080fd5b50565b6149018161400a565b811461490c57600080fd5b5056fea2646970667358221220be59306f66274025bbadb497d73472803e98a70669980b0355fdc59e678ec55564736f6c63430008040033",
  "linkReferences": {},
  "deployedLinkReferences": {}
}