{
  "_format": "hh-sol-artifact-1",
  "contractName": "Mekabae",
  "sourceName": "contracts/Mekabae.sol",
  "abi": [
    {
      "inputs": [
        {
          "internalType": "bytes32",
          "name": "merkleRoot_",
          "type": "bytes32"
        }
      ],
      "stateMutability": "nonpayable",
      "type": "constructor"
    },
    {
      "inputs": [],
      "name": "ApprovalCallerNotOwnerNorApproved",
      "type": "error"
    },
    {
      "inputs": [],
      "name": "ApprovalQueryForNonexistentToken",
      "type": "error"
    },
    {
      "inputs": [],
      "name": "ApprovalToCurrentOwner",
      "type": "error"
    },
    {
      "inputs": [],
      "name": "ApproveToCaller",
      "type": "error"
    },
    {
      "inputs": [],
      "name": "BalanceQueryForZeroAddress",
      "type": "error"
    },
    {
      "inputs": [],
      "name": "MintToZeroAddress",
      "type": "error"
    },
    {
      "inputs": [],
      "name": "MintZeroQuantity",
      "type": "error"
    },
    {
      "inputs": [],
      "name": "OwnerQueryForNonexistentToken",
      "type": "error"
    },
    {
      "inputs": [],
      "name": "TransferCallerNotOwnerNorApproved",
      "type": "error"
    },
    {
      "inputs": [],
      "name": "TransferFromIncorrectOwner",
      "type": "error"
    },
    {
      "inputs": [],
      "name": "TransferToNonERC721ReceiverImplementer",
      "type": "error"
    },
    {
      "inputs": [],
      "name": "TransferToZeroAddress",
      "type": "error"
    },
    {
      "inputs": [],
      "name": "URIQueryForNonexistentToken",
      "type": "error"
    },
    {
      "anonymous": false,
      "inputs": [
        {
          "indexed": true,
          "internalType": "address",
          "name": "owner",
          "type": "address"
        },
        {
          "indexed": true,
          "internalType": "address",
          "name": "approved",
          "type": "address"
        },
        {
          "indexed": true,
          "internalType": "uint256",
          "name": "tokenId",
          "type": "uint256"
        }
      ],
      "name": "Approval",
      "type": "event"
    },
    {
      "anonymous": false,
      "inputs": [
        {
          "indexed": true,
          "internalType": "address",
          "name": "owner",
          "type": "address"
        },
        {
          "indexed": true,
          "internalType": "address",
          "name": "operator",
          "type": "address"
        },
        {
          "indexed": false,
          "internalType": "bool",
          "name": "approved",
          "type": "bool"
        }
      ],
      "name": "ApprovalForAll",
      "type": "event"
    },
    {
      "anonymous": false,
      "inputs": [
        {
          "indexed": true,
          "internalType": "address",
          "name": "previousOwner",
          "type": "address"
        },
        {
          "indexed": true,
          "internalType": "address",
          "name": "newOwner",
          "type": "address"
        }
      ],
      "name": "OwnershipTransferred",
      "type": "event"
    },
    {
      "anonymous": false,
      "inputs": [
        {
          "indexed": true,
          "internalType": "address",
          "name": "from",
          "type": "address"
        },
        {
          "indexed": true,
          "internalType": "address",
          "name": "to",
          "type": "address"
        },
        {
          "indexed": true,
          "internalType": "uint256",
          "name": "tokenId",
          "type": "uint256"
        }
      ],
      "name": "Transfer",
      "type": "event"
    },
    {
      "inputs": [],
      "name": "MAX_FREE_MINT",
      "outputs": [
        {
          "internalType": "uint256",
          "name": "",
          "type": "uint256"
        }
      ],
      "stateMutability": "view",
      "type": "function"
    },
    {
      "inputs": [],
      "name": "MAX_SUPPLY",
      "outputs": [
        {
          "internalType": "uint256",
          "name": "",
          "type": "uint256"
        }
      ],
      "stateMutability": "view",
      "type": "function"
    },
    {
      "inputs": [],
      "name": "PUBLIC_MINT_PRICE",
      "outputs": [
        {
          "internalType": "uint256",
          "name": "",
          "type": "uint256"
        }
      ],
      "stateMutability": "view",
      "type": "function"
    },
    {
      "inputs": [],
      "name": "WHITELIST_MINT_PRICE",
      "outputs": [
        {
          "internalType": "uint256",
          "name": "",
          "type": "uint256"
        }
      ],
      "stateMutability": "view",
      "type": "function"
    },
    {
      "inputs": [
        {
          "internalType": "address",
          "name": "to",
          "type": "address"
        },
        {
          "internalType": "uint256",
          "name": "tokenId",
          "type": "uint256"
        }
      ],
      "name": "approve",
      "outputs": [],
      "stateMutability": "nonpayable",
      "type": "function"
    },
    {
      "inputs": [
        {
          "internalType": "address",
          "name": "owner",
          "type": "address"
        }
      ],
      "name": "balanceOf",
      "outputs": [
        {
          "internalType": "uint256",
          "name": "",
          "type": "uint256"
        }
      ],
      "stateMutability": "view",
      "type": "function"
    },
    {
      "inputs": [],
      "name": "countFreeMint",
      "outputs": [
        {
          "internalType": "uint256",
          "name": "",
          "type": "uint256"
        }
      ],
      "stateMutability": "view",
      "type": "function"
    },
    {
      "inputs": [],
      "name": "flipS1MintState",
      "outputs": [],
      "stateMutability": "nonpayable",
      "type": "function"
    },
    {
      "inputs": [],
      "name": "flipSaleState",
      "outputs": [],
      "stateMutability": "nonpayable",
      "type": "function"
    },
    {
      "inputs": [
        {
          "internalType": "uint256",
          "name": "tokenId",
          "type": "uint256"
        }
      ],
      "name": "getApproved",
      "outputs": [
        {
          "internalType": "address",
          "name": "",
          "type": "address"
        }
      ],
      "stateMutability": "view",
      "type": "function"
    },
    {
      "inputs": [
        {
          "internalType": "address",
          "name": "owner",
          "type": "address"
        },
        {
          "internalType": "address",
          "name": "operator",
          "type": "address"
        }
      ],
      "name": "isApprovedForAll",
      "outputs": [
        {
          "internalType": "bool",
          "name": "",
          "type": "bool"
        }
      ],
      "stateMutability": "view",
      "type": "function"
    },
    {
      "inputs": [],
      "name": "merkleRoot",
      "outputs": [
        {
          "internalType": "bytes32",
          "name": "",
          "type": "bytes32"
        }
      ],
      "stateMutability": "view",
      "type": "function"
    },
    {
      "inputs": [
        {
          "internalType": "address",
          "name": "minter",
          "type": "address"
        }
      ],
      "name": "mintedOf",
      "outputs": [
        {
          "internalType": "uint256",
          "name": "",
          "type": "uint256"
        }
      ],
      "stateMutability": "view",
      "type": "function"
    },
    {
      "inputs": [],
      "name": "name",
      "outputs": [
        {
          "internalType": "string",
          "name": "",
          "type": "string"
        }
      ],
      "stateMutability": "view",
      "type": "function"
    },
    {
      "inputs": [],
      "name": "owner",
      "outputs": [
        {
          "internalType": "address",
          "name": "",
          "type": "address"
        }
      ],
      "stateMutability": "view",
      "type": "function"
    },
    {
      "inputs": [
        {
          "internalType": "uint256",
          "name": "tokenId",
          "type": "uint256"
        }
      ],
      "name": "ownerOf",
      "outputs": [
        {
          "internalType": "address",
          "name": "",
          "type": "address"
        }
      ],
      "stateMutability": "view",
      "type": "function"
    },
    {
      "inputs": [
        {
          "internalType": "uint256",
          "name": "quantity",
          "type": "uint256"
        }
      ],
      "name": "publicMint",
      "outputs": [],
      "stateMutability": "payable",
      "type": "function"
    },
    {
      "inputs": [],
      "name": "renounceOwnership",
      "outputs": [],
      "stateMutability": "nonpayable",
      "type": "function"
    },
    {
      "inputs": [],
      "name": "s1MintIsActive",
      "outputs": [
        {
          "internalType": "bool",
          "name": "",
          "type": "bool"
        }
      ],
      "stateMutability": "view",
      "type": "function"
    },
    {
      "inputs": [
        {
          "internalType": "address",
          "name": "from",
          "type": "address"
        },
        {
          "internalType": "address",
          "name": "to",
          "type": "address"
        },
        {
          "internalType": "uint256",
          "name": "tokenId",
          "type": "uint256"
        }
      ],
      "name": "safeTransferFrom",
      "outputs": [],
      "stateMutability": "nonpayable",
      "type": "function"
    },
    {
      "inputs": [
        {
          "internalType": "address",
          "name": "from",
          "type": "address"
        },
        {
          "internalType": "address",
          "name": "to",
          "type": "address"
        },
        {
          "internalType": "uint256",
          "name": "tokenId",
          "type": "uint256"
        },
        {
          "internalType": "bytes",
          "name": "_data",
          "type": "bytes"
        }
      ],
      "name": "safeTransferFrom",
      "outputs": [],
      "stateMutability": "nonpayable",
      "type": "function"
    },
    {
      "inputs": [],
      "name": "saleIsActive",
      "outputs": [
        {
          "internalType": "bool",
          "name": "",
          "type": "bool"
        }
      ],
      "stateMutability": "view",
      "type": "function"
    },
    {
      "inputs": [
        {
          "internalType": "address",
          "name": "operator",
          "type": "address"
        },
        {
          "internalType": "bool",
          "name": "approved",
          "type": "bool"
        }
      ],
      "name": "setApprovalForAll",
      "outputs": [],
      "stateMutability": "nonpayable",
      "type": "function"
    },
    {
      "inputs": [
        {
          "internalType": "string",
          "name": "baseURI",
          "type": "string"
        }
      ],
      "name": "setBaseURI",
      "outputs": [],
      "stateMutability": "nonpayable",
      "type": "function"
    },
    {
      "inputs": [
        {
          "internalType": "bytes32",
          "name": "merkleRoot_",
          "type": "bytes32"
        }
      ],
      "name": "setMerkleRoot",
      "outputs": [],
      "stateMutability": "nonpayable",
      "type": "function"
    },
    {
      "inputs": [
        {
          "internalType": "bytes4",
          "name": "interfaceId",
          "type": "bytes4"
        }
      ],
      "name": "supportsInterface",
      "outputs": [
        {
          "internalType": "bool",
          "name": "",
          "type": "bool"
        }
      ],
      "stateMutability": "view",
      "type": "function"
    },
    {
      "inputs": [],
      "name": "symbol",
      "outputs": [
        {
          "internalType": "string",
          "name": "",
          "type": "string"
        }
      ],
      "stateMutability": "view",
      "type": "function"
    },
    {
      "inputs": [
        {
          "internalType": "address",
          "name": "to",
          "type": "address"
        }
      ],
      "name": "teamMint",
      "outputs": [],
      "stateMutability": "nonpayable",
      "type": "function"
    },
    {
      "inputs": [],
      "name": "teamMinted",
      "outputs": [
        {
          "internalType": "bool",
          "name": "",
          "type": "bool"
        }
      ],
      "stateMutability": "view",
      "type": "function"
    },
    {
      "inputs": [
        {
          "internalType": "uint256",
          "name": "tokenId",
          "type": "uint256"
        }
      ],
      "name": "tokenURI",
      "outputs": [
        {
          "internalType": "string",
          "name": "",
          "type": "string"
        }
      ],
      "stateMutability": "view",
      "type": "function"
    },
    {
      "inputs": [],
      "name": "totalSupply",
      "outputs": [
        {
          "internalType": "uint256",
          "name": "",
          "type": "uint256"
        }
      ],
      "stateMutability": "view",
      "type": "function"
    },
    {
      "inputs": [
        {
          "internalType": "address",
          "name": "from",
          "type": "address"
        },
        {
          "internalType": "address",
          "name": "to",
          "type": "address"
        },
        {
          "internalType": "uint256",
          "name": "tokenId",
          "type": "uint256"
        }
      ],
      "name": "transferFrom",
      "outputs": [],
      "stateMutability": "nonpayable",
      "type": "function"
    },
    {
      "inputs": [
        {
          "internalType": "address",
          "name": "newOwner",
          "type": "address"
        }
      ],
      "name": "transferOwnership",
      "outputs": [],
      "stateMutability": "nonpayable",
      "type": "function"
    },
    {
      "inputs": [
        {
          "internalType": "bytes32[]",
          "name": "merkleProof",
          "type": "bytes32[]"
        },
        {
          "internalType": "uint256",
          "name": "availableToMint",
          "type": "uint256"
        },
        {
          "internalType": "bool",
          "name": "isS1Holder",
          "type": "bool"
        },
        {
          "internalType": "uint256",
          "name": "quantity",
          "type": "uint256"
        }
      ],
      "name": "whitelistMint",
      "outputs": [],
      "stateMutability": "payable",
      "type": "function"
    },
    {
      "inputs": [],
      "name": "withdraw",
      "outputs": [],
      "stateMutability": "nonpayable",
      "type": "function"
    }
  ],
  "bytecode": "0x60806040526001600a60026101000a81548160ff0219169083151502179055506000600b553480156200003157600080fd5b506040516200469f3803806200469f8339818101604052810190620000579190620002db565b6040518060400160405280600781526020017f4d656b61626165000000000000000000000000000000000000000000000000008152506040518060400160405280600781526020017f4d454b4142414500000000000000000000000000000000000000000000000000815250620000e3620000d76200014360201b60201c565b6200014b60201b60201c565b8160039080519060200190620000fb92919062000214565b5080600490805190602001906200011492919062000214565b50620001256200020f60201b60201c565b6001819055505050600160098190555080600c819055505062000390565b600033905090565b60008060009054906101000a900473ffffffffffffffffffffffffffffffffffffffff169050816000806101000a81548173ffffffffffffffffffffffffffffffffffffffff021916908373ffffffffffffffffffffffffffffffffffffffff1602179055508173ffffffffffffffffffffffffffffffffffffffff168173ffffffffffffffffffffffffffffffffffffffff167f8be0079c531659141344cd1fd0a4f28419497f9722a3daafe3b4186f6b6457e060405160405180910390a35050565b600090565b828054620002229062000311565b90600052602060002090601f01602090048101928262000246576000855562000292565b82601f106200026157805160ff191683800117855562000292565b8280016001018555821562000292579182015b828111156200029157825182559160200191906001019062000274565b5b509050620002a19190620002a5565b5090565b5b80821115620002c0576000816000905550600101620002a6565b5090565b600081519050620002d58162000376565b92915050565b600060208284031215620002ee57600080fd5b6000620002fe84828501620002c4565b91505092915050565b6000819050919050565b600060028204905060018216806200032a57607f821691505b6020821081141562000341576200034062000347565b5b50919050565b7f4e487b7100000000000000000000000000000000000000000000000000000000600052602260045260246000fd5b620003818162000307565b81146200038d57600080fd5b50565b6142ff80620003a06000396000f3fe6080604052600436106102045760003560e01c80636352211e11610118578063aca9938d116100a0578063d5f0b46f1161006f578063d5f0b46f14610715578063e8b5498d1461072c578063e985e9c514610757578063eb8d244414610794578063f2fde38b146107bf57610204565b8063aca9938d1461065b578063b6a1dba114610686578063b88d4fde146106af578063c87b56dd146106d857610204565b8063771f5131116100e7578063771f5131146105975780637cb64759146105b35780638da5cb5b146105dc57806395d89b4114610607578063a22cb4651461063257610204565b80636352211e146104db5780636bde26271461051857806370a0823114610543578063715018a61461058057610204565b80632db115441161019b5780633ccfd60b1161016a5780633ccfd60b1461040a57806341cda2031461042157806342842e0e1461044c57806355f804b314610475578063617692dd1461049e57610204565b80632db11544146103815780632eb4a7ab1461039d57806332cb6b0c146103c857806334918dfd146103f357610204565b806318160ddd116101d757806318160ddd146102d75780631baac9091461030257806323b872dd1461032d5780632b0ca3cf1461035657610204565b806301ffc9a71461020957806306fdde0314610246578063081812fc14610271578063095ea7b3146102ae575b600080fd5b34801561021557600080fd5b50610230600480360381019061022b9190613557565b6107e8565b60405161023d91906139bc565b60405180910390f35b34801561025257600080fd5b5061025b6108ca565b60405161026891906139f2565b60405180910390f35b34801561027d57600080fd5b50610298600480360381019061029391906135ee565b61095c565b6040516102a59190613955565b60405180910390f35b3480156102ba57600080fd5b506102d560048036038101906102d09190613472565b6109d8565b005b3480156102e357600080fd5b506102ec610add565b6040516102f99190613b74565b60405180910390f35b34801561030e57600080fd5b50610317610af4565b60405161032491906139bc565b60405180910390f35b34801561033957600080fd5b50610354600480360381019061034f919061336c565b610b07565b005b34801561036257600080fd5b5061036b610b17565b6040516103789190613b74565b60405180910390f35b61039b600480360381019061039691906135ee565b610b1d565b005b3480156103a957600080fd5b506103b2610ccb565b6040516103bf91906139d7565b60405180910390f35b3480156103d457600080fd5b506103dd610cd1565b6040516103ea9190613b74565b60405180910390f35b3480156103ff57600080fd5b50610408610cd7565b005b34801561041657600080fd5b5061041f610d7f565b005b34801561042d57600080fd5b50610436610f00565b6040516104439190613b74565b60405180910390f35b34801561045857600080fd5b50610473600480360381019061046e919061336c565b610f06565b005b34801561048157600080fd5b5061049c600480360381019061049791906135a9565b610f26565b005b3480156104aa57600080fd5b506104c560048036038101906104c09190613307565b610fb8565b6040516104d29190613b74565b60405180910390f35b3480156104e757600080fd5b5061050260048036038101906104fd91906135ee565b611001565b60405161050f9190613955565b60405180910390f35b34801561052457600080fd5b5061052d611017565b60405161053a9190613b74565b60405180910390f35b34801561054f57600080fd5b5061056a60048036038101906105659190613307565b611023565b6040516105779190613b74565b60405180910390f35b34801561058c57600080fd5b506105956110f3565b005b6105b160048036038101906105ac91906134ae565b61117b565b005b3480156105bf57600080fd5b506105da60048036038101906105d5919061352e565b61149f565b005b3480156105e857600080fd5b506105f1611525565b6040516105fe9190613955565b60405180910390f35b34801561061357600080fd5b5061061c61154e565b60405161062991906139f2565b60405180910390f35b34801561063e57600080fd5b5061065960048036038101906106549190613436565b6115e0565b005b34801561066757600080fd5b50610670611758565b60405161067d9190613b74565b60405180910390f35b34801561069257600080fd5b506106ad60048036038101906106a89190613307565b611763565b005b3480156106bb57600080fd5b506106d660048036038101906106d191906133bb565b611858565b005b3480156106e457600080fd5b506106ff60048036038101906106fa91906135ee565b6118d0565b60405161070c91906139f2565b60405180910390f35b34801561072157600080fd5b5061072a61196f565b005b34801561073857600080fd5b50610741611a17565b60405161074e91906139bc565b60405180910390f35b34801561076357600080fd5b5061077e60048036038101906107799190613330565b611a2a565b60405161078b91906139bc565b60405180910390f35b3480156107a057600080fd5b506107a9611abe565b6040516107b691906139bc565b60405180910390f35b3480156107cb57600080fd5b506107e660048036038101906107e19190613307565b611ad1565b005b60007f80ac58cd000000000000000000000000000000000000000000000000000000007bffffffffffffffffffffffffffffffffffffffffffffffffffffffff1916827bffffffffffffffffffffffffffffffffffffffffffffffffffffffff191614806108b357507f5b5e139f000000000000000000000000000000000000000000000000000000007bffffffffffffffffffffffffffffffffffffffffffffffffffffffff1916827bffffffffffffffffffffffffffffffffffffffffffffffffffffffff1916145b806108c357506108c282611bc9565b5b9050919050565b6060600380546108d990613e08565b80601f016020809104026020016040519081016040528092919081815260200182805461090590613e08565b80156109525780601f1061092757610100808354040283529160200191610952565b820191906000526020600020905b81548152906001019060200180831161093557829003601f168201915b5050505050905090565b600061096782611c33565b61099d576040517fcf4700e400000000000000000000000000000000000000000000000000000000815260040160405180910390fd5b6007600083815260200190815260200160002060009054906101000a900473ffffffffffffffffffffffffffffffffffffffff169050919050565b60006109e382611001565b90508073ffffffffffffffffffffffffffffffffffffffff168373ffffffffffffffffffffffffffffffffffffffff161415610a4b576040517f943f7b8c00000000000000000000000000000000000000000000000000000000815260040160405180910390fd5b8073ffffffffffffffffffffffffffffffffffffffff16610a6a611c81565b73ffffffffffffffffffffffffffffffffffffffff1614610acd57610a9681610a91611c81565b611a2a565b610acc576040517fcfb3b94200000000000000000000000000000000000000000000000000000000815260040160405180910390fd5b5b610ad8838383611c89565b505050565b6000610ae7611d3b565b6002546001540303905090565b600a60029054906101000a900460ff1681565b610b12838383611d40565b505050565b600b5481565b3373ffffffffffffffffffffffffffffffffffffffff163273ffffffffffffffffffffffffffffffffffffffff1614610b8b576040517f08c379a0000000000000000000000000000000000000000000000000000000008152600401610b8290613af4565b60405180910390fd5b600a60019054906101000a900460ff16610bda576040517f08c379a0000000000000000000000000000000000000000000000000000000008152600401610bd190613a74565b60405180910390fd5b6064811115610c1e576040517f08c379a0000000000000000000000000000000000000000000000000000000008152600401610c1590613ab4565b60405180910390fd5b348167011c8055f19d0000610c339190613cba565b1115610c74576040517f08c379a0000000000000000000000000000000000000000000000000000000008152600401610c6b90613b54565b60405180910390fd5b610c7f8160006121f6565b610cbe576040517f08c379a0000000000000000000000000000000000000000000000000000000008152600401610cb590613a94565b60405180910390fd5b610cc83382612327565b50565b600c5481565b6108ae81565b610cdf611c81565b73ffffffffffffffffffffffffffffffffffffffff16610cfd611525565b73ffffffffffffffffffffffffffffffffffffffff1614610d53576040517f08c379a0000000000000000000000000000000000000000000000000000000008152600401610d4a90613ad4565b60405180910390fd5b600a60019054906101000a900460ff1615600a60016101000a81548160ff021916908315150217905550565b610d87611c81565b73ffffffffffffffffffffffffffffffffffffffff16610da5611525565b73ffffffffffffffffffffffffffffffffffffffff1614610dfb576040517f08c379a0000000000000000000000000000000000000000000000000000000008152600401610df290613ad4565b60405180910390fd5b60026009541415610e41576040517f08c379a0000000000000000000000000000000000000000000000000000000008152600401610e3890613b34565b60405180910390fd5b600260098190555060003373ffffffffffffffffffffffffffffffffffffffff1647604051610e6f90613940565b60006040518083038185875af1925050503d8060008114610eac576040519150601f19603f3d011682016040523d82523d6000602084013e610eb1565b606091505b5050905080610ef5576040517f08c379a0000000000000000000000000000000000000000000000000000000008152600401610eec90613b14565b60405180910390fd5b506001600981905550565b61026981565b610f2183838360405180602001604052806000815250611858565b505050565b610f2e611c81565b73ffffffffffffffffffffffffffffffffffffffff16610f4c611525565b73ffffffffffffffffffffffffffffffffffffffff1614610fa2576040517f08c379a0000000000000000000000000000000000000000000000000000000008152600401610f9990613ad4565b60405180910390fd5b8181600e9190610fb39291906130a7565b505050565b6000600d60008373ffffffffffffffffffffffffffffffffffffffff1673ffffffffffffffffffffffffffffffffffffffff168152602001908152602001600020549050919050565b600061100c82612345565b600001519050919050565b67011c8055f19d000081565b60008073ffffffffffffffffffffffffffffffffffffffff168273ffffffffffffffffffffffffffffffffffffffff16141561108b576040517f8f4eb60400000000000000000000000000000000000000000000000000000000815260040160405180910390fd5b600660008373ffffffffffffffffffffffffffffffffffffffff1673ffffffffffffffffffffffffffffffffffffffff16815260200190815260200160002060000160009054906101000a900467ffffffffffffffff1667ffffffffffffffff169050919050565b6110fb611c81565b73ffffffffffffffffffffffffffffffffffffffff16611119611525565b73ffffffffffffffffffffffffffffffffffffffff161461116f576040517f08c379a000000000000000000000000000000000000000000000000000000000815260040161116690613ad4565b60405180910390fd5b61117960006125d0565b565b3373ffffffffffffffffffffffffffffffffffffffff163273ffffffffffffffffffffffffffffffffffffffff16146111e9576040517f08c379a00000000000000000000000000000000000000000000000000000000081526004016111e090613af4565b60405180910390fd5b600a60019054906101000a900460ff16611238576040517f08c379a000000000000000000000000000000000000000000000000000000000815260040161122f90613a74565b60405180910390fd5b606481111561127c576040517f08c379a000000000000000000000000000000000000000000000000000000000815260040161127390613ab4565b60405180910390fd5b61128681836121f6565b6112c5576040517f08c379a00000000000000000000000000000000000000000000000000000000081526004016112bc90613a94565b60405180910390fd5b60003384846040516020016112dc939291906138df565b604051602081830303815290604052805190602001209050611342868680806020026020016040519081016040528093929190818152602001838360200280828437600081840152601f19601f82011690508083019250505050505050600c5483612694565b611381576040517f08c379a000000000000000000000000000000000000000000000000000000000815260040161137890613a54565b60405180910390fd5b61138c8484846126ab565b6113cb576040517f08c379a00000000000000000000000000000000000000000000000000000000081526004016113c290613b54565b60405180910390fd5b82801561141757506000600d60003373ffffffffffffffffffffffffffffffffffffffff1673ffffffffffffffffffffffffffffffffffffffff16815260200190815260200160002054145b15611437576001600b600082825461142f9190613c33565b925050819055505b81600d60003373ffffffffffffffffffffffffffffffffffffffff1673ffffffffffffffffffffffffffffffffffffffff16815260200190815260200160002060008282546114869190613c33565b925050819055506114973383612327565b505050505050565b6114a7611c81565b73ffffffffffffffffffffffffffffffffffffffff166114c5611525565b73ffffffffffffffffffffffffffffffffffffffff161461151b576040517f08c379a000000000000000000000000000000000000000000000000000000000815260040161151290613ad4565b60405180910390fd5b80600c8190555050565b60008060009054906101000a900473ffffffffffffffffffffffffffffffffffffffff16905090565b60606004805461155d90613e08565b80601f016020809104026020016040519081016040528092919081815260200182805461158990613e08565b80156115d65780601f106115ab576101008083540402835291602001916115d6565b820191906000526020600020905b8154815290600101906020018083116115b957829003601f168201915b5050505050905090565b6115e8611c81565b73ffffffffffffffffffffffffffffffffffffffff168273ffffffffffffffffffffffffffffffffffffffff16141561164d576040517fb06307db00000000000000000000000000000000000000000000000000000000815260040160405180910390fd5b806008600061165a611c81565b73ffffffffffffffffffffffffffffffffffffffff1673ffffffffffffffffffffffffffffffffffffffff16815260200190815260200160002060008473ffffffffffffffffffffffffffffffffffffffff1673ffffffffffffffffffffffffffffffffffffffff16815260200190815260200160002060006101000a81548160ff0219169083151502179055508173ffffffffffffffffffffffffffffffffffffffff16611707611c81565b73ffffffffffffffffffffffffffffffffffffffff167f17307eab39ab6107e8899845ad3d59bd9653f200f220920489ca2b5937696c318360405161174c91906139bc565b60405180910390a35050565b66f523226980800081565b61176b611c81565b73ffffffffffffffffffffffffffffffffffffffff16611789611525565b73ffffffffffffffffffffffffffffffffffffffff16146117df576040517f08c379a00000000000000000000000000000000000000000000000000000000081526004016117d690613ad4565b60405180910390fd5b600a60009054906101000a900460ff161561182f576040517f08c379a000000000000000000000000000000000000000000000000000000000815260040161182690613a34565b60405180910390fd5b6001600a60006101000a81548160ff021916908315150217905550611855816064612327565b50565b611863848484611d40565b6118828373ffffffffffffffffffffffffffffffffffffffff16612864565b156118ca5761189384848484612887565b6118c9576040517fd1a57ed600000000000000000000000000000000000000000000000000000000815260040160405180910390fd5b5b50505050565b60606118db82611c33565b611911576040517fa14c4b5000000000000000000000000000000000000000000000000000000000815260040160405180910390fd5b600061191b6129e7565b905060008151141561193c5760405180602001604052806000815250611967565b8061194684612a79565b60405160200161195792919061391c565b6040516020818303038152906040525b915050919050565b611977611c81565b73ffffffffffffffffffffffffffffffffffffffff16611995611525565b73ffffffffffffffffffffffffffffffffffffffff16146119eb576040517f08c379a00000000000000000000000000000000000000000000000000000000081526004016119e290613ad4565b60405180910390fd5b600a60029054906101000a900460ff1615600a60026101000a81548160ff021916908315150217905550565b600a60009054906101000a900460ff1681565b6000600860008473ffffffffffffffffffffffffffffffffffffffff1673ffffffffffffffffffffffffffffffffffffffff16815260200190815260200160002060008373ffffffffffffffffffffffffffffffffffffffff1673ffffffffffffffffffffffffffffffffffffffff16815260200190815260200160002060009054906101000a900460ff16905092915050565b600a60019054906101000a900460ff1681565b611ad9611c81565b73ffffffffffffffffffffffffffffffffffffffff16611af7611525565b73ffffffffffffffffffffffffffffffffffffffff1614611b4d576040517f08c379a0000000000000000000000000000000000000000000000000000000008152600401611b4490613ad4565b60405180910390fd5b600073ffffffffffffffffffffffffffffffffffffffff168173ffffffffffffffffffffffffffffffffffffffff161415611bbd576040517f08c379a0000000000000000000000000000000000000000000000000000000008152600401611bb490613a14565b60405180910390fd5b611bc6816125d0565b50565b60007f01ffc9a7000000000000000000000000000000000000000000000000000000007bffffffffffffffffffffffffffffffffffffffffffffffffffffffff1916827bffffffffffffffffffffffffffffffffffffffffffffffffffffffff1916149050919050565b600081611c3e611d3b565b11158015611c4d575060015482105b8015611c7a575060056000838152602001908152602001600020600001601c9054906101000a900460ff16155b9050919050565b600033905090565b826007600084815260200190815260200160002060006101000a81548173ffffffffffffffffffffffffffffffffffffffff021916908373ffffffffffffffffffffffffffffffffffffffff160217905550818373ffffffffffffffffffffffffffffffffffffffff168273ffffffffffffffffffffffffffffffffffffffff167f8c5be1e5ebec7d5bd14f71427d1e84f3dd0314c0f7b2291e5b200ac8c7c3b92560405160405180910390a4505050565b600090565b6000611d4b82612345565b90508373ffffffffffffffffffffffffffffffffffffffff16816000015173ffffffffffffffffffffffffffffffffffffffff1614611db6576040517fa114810000000000000000000000000000000000000000000000000000000000815260040160405180910390fd5b60008473ffffffffffffffffffffffffffffffffffffffff16611dd7611c81565b73ffffffffffffffffffffffffffffffffffffffff161480611e065750611e0585611e00611c81565b611a2a565b5b80611e4b5750611e14611c81565b73ffffffffffffffffffffffffffffffffffffffff16611e338461095c565b73ffffffffffffffffffffffffffffffffffffffff16145b905080611e84576040517f59c896be00000000000000000000000000000000000000000000000000000000815260040160405180910390fd5b600073ffffffffffffffffffffffffffffffffffffffff168473ffffffffffffffffffffffffffffffffffffffff161415611eeb576040517fea553b3400000000000000000000000000000000000000000000000000000000815260040160405180910390fd5b611ef88585856001612c26565b611f0460008487611c89565b6001600660008773ffffffffffffffffffffffffffffffffffffffff1673ffffffffffffffffffffffffffffffffffffffff16815260200190815260200160002060000160008282829054906101000a900467ffffffffffffffff160392506101000a81548167ffffffffffffffff021916908367ffffffffffffffff1602179055506001600660008673ffffffffffffffffffffffffffffffffffffffff1673ffffffffffffffffffffffffffffffffffffffff16815260200190815260200160002060000160008282829054906101000a900467ffffffffffffffff160192506101000a81548167ffffffffffffffff021916908367ffffffffffffffff1602179055506000600560008581526020019081526020016000209050848160000160006101000a81548173ffffffffffffffffffffffffffffffffffffffff021916908373ffffffffffffffffffffffffffffffffffffffff160217905550428160000160146101000a81548167ffffffffffffffff021916908367ffffffffffffffff16021790555060006001850190506000600560008381526020019081526020016000209050600073ffffffffffffffffffffffffffffffffffffffff168160000160009054906101000a900473ffffffffffffffffffffffffffffffffffffffff1673ffffffffffffffffffffffffffffffffffffffff16141561218457600154821461218357878160000160006101000a81548173ffffffffffffffffffffffffffffffffffffffff021916908373ffffffffffffffffffffffffffffffffffffffff16021790555084602001518160000160146101000a81548167ffffffffffffffff021916908367ffffffffffffffff1602179055505b5b505050828473ffffffffffffffffffffffffffffffffffffffff168673ffffffffffffffffffffffffffffffffffffffff167fddf252ad1be2c89b69c2b068fc378daa952ba7f163c4a11628f55a4df523b3ef60405160405180910390a46121ef8585856001612c2c565b5050505050565b6000600a60029054906101000a900460ff16156123065781801561225957506000600d60003373ffffffffffffffffffffffffffffffffffffffff1673ffffffffffffffffffffffffffffffffffffffff16815260200190815260200160002054145b80156122655750600183145b801561229e5750600b546102696108ae61227f9190613d14565b6122899190613c33565b83612292610add565b61229c9190613c33565b115b80156122be57506108ae836122b1610add565b6122bb9190613c33565b11155b156122cc5760019050612301565b600b546102696108ae6122df9190613d14565b6122e99190613c33565b836122f2610add565b6122fc9190613c33565b111590505b612321565b6108ae83612312610add565b61231c9190613c33565b111590505b92915050565b612341828260405180602001604052806000815250612c32565b5050565b61234d61312d565b60008290508061235b611d3b565b1161259957600154811015612598576000600560008381526020019081526020016000206040518060600160405290816000820160009054906101000a900473ffffffffffffffffffffffffffffffffffffffff1673ffffffffffffffffffffffffffffffffffffffff1673ffffffffffffffffffffffffffffffffffffffff1681526020016000820160149054906101000a900467ffffffffffffffff1667ffffffffffffffff1667ffffffffffffffff16815260200160008201601c9054906101000a900460ff1615151515815250509050806040015161259657600073ffffffffffffffffffffffffffffffffffffffff16816000015173ffffffffffffffffffffffffffffffffffffffff161461247a5780925050506125cb565b5b60011561259557818060019003925050600560008381526020019081526020016000206040518060600160405290816000820160009054906101000a900473ffffffffffffffffffffffffffffffffffffffff1673ffffffffffffffffffffffffffffffffffffffff1673ffffffffffffffffffffffffffffffffffffffff1681526020016000820160149054906101000a900467ffffffffffffffff1667ffffffffffffffff1667ffffffffffffffff16815260200160008201601c9054906101000a900460ff1615151515815250509050600073ffffffffffffffffffffffffffffffffffffffff16816000015173ffffffffffffffffffffffffffffffffffffffff16146125905780925050506125cb565b61247b565b5b505b5b6040517fdf2d9b4200000000000000000000000000000000000000000000000000000000815260040160405180910390fd5b919050565b60008060009054906101000a900473ffffffffffffffffffffffffffffffffffffffff169050816000806101000a81548173ffffffffffffffffffffffffffffffffffffffff021916908373ffffffffffffffffffffffffffffffffffffffff1602179055508173ffffffffffffffffffffffffffffffffffffffff168173ffffffffffffffffffffffffffffffffffffffff167f8be0079c531659141344cd1fd0a4f28419497f9722a3daafe3b4186f6b6457e060405160405180910390a35050565b6000826126a18584612ff5565b1490509392505050565b600080600090506000600a60029054906101000a900460ff1680156126cd5750845b801561271857506000600d60003373ffffffffffffffffffffffffffffffffffffffff1673ffffffffffffffffffffffffffffffffffffffff16815260200190815260200160002054145b1561272d5760018161272a9190613c33565b90505b85600d60003373ffffffffffffffffffffffffffffffffffffffff1673ffffffffffffffffffffffffffffffffffffffff1681526020019081526020016000205410801561277a57508381105b1561282057600081600d60003373ffffffffffffffffffffffffffffffffffffffff1673ffffffffffffffffffffffffffffffffffffffff16815260200190815260200160002054886127cd9190613d14565b6127d79190613d14565b905081856127e59190613d14565b8111156127f0578490505b80826127fc9190613c33565b915066f5232269808000816128119190613cba565b8361281c9190613c33565b9250505b838110156128555767011c8055f19d0000818561283d9190613d14565b6128479190613cba565b826128529190613c33565b91505b34821115925050509392505050565b6000808273ffffffffffffffffffffffffffffffffffffffff163b119050919050565b60008373ffffffffffffffffffffffffffffffffffffffff1663150b7a026128ad611c81565b8786866040518563ffffffff1660e01b81526004016128cf9493929190613970565b602060405180830381600087803b1580156128e957600080fd5b505af192505050801561291a57506040513d601f19601f820116820180604052508101906129179190613580565b60015b612994573d806000811461294a576040519150601f19603f3d011682016040523d82523d6000602084013e61294f565b606091505b5060008151141561298c576040517fd1a57ed600000000000000000000000000000000000000000000000000000000815260040160405180910390fd5b805181602001fd5b63150b7a0260e01b7bffffffffffffffffffffffffffffffffffffffffffffffffffffffff1916817bffffffffffffffffffffffffffffffffffffffffffffffffffffffff191614915050949350505050565b6060600e80546129f690613e08565b80601f0160208091040260200160405190810160405280929190818152602001828054612a2290613e08565b8015612a6f5780601f10612a4457610100808354040283529160200191612a6f565b820191906000526020600020905b815481529060010190602001808311612a5257829003601f168201915b5050505050905090565b60606000821415612ac1576040518060400160405280600181526020017f30000000000000000000000000000000000000000000000000000000000000008152509050612c21565b600082905060005b60008214612af3578080612adc90613e6b565b915050600a82612aec9190613c89565b9150612ac9565b60008167ffffffffffffffff811115612b35577f4e487b7100000000000000000000000000000000000000000000000000000000600052604160045260246000fd5b6040519080825280601f01601f191660200182016040528015612b675781602001600182028036833780820191505090505b5090505b60008514612c1a57600182612b809190613d14565b9150600a85612b8f9190613f06565b6030612b9b9190613c33565b60f81b818381518110612bd7577f4e487b7100000000000000000000000000000000000000000000000000000000600052603260045260246000fd5b60200101907effffffffffffffffffffffffffffffffffffffffffffffffffffffffffffff1916908160001a905350600a85612c139190613c89565b9450612b6b565b8093505050505b919050565b50505050565b50505050565b60006001549050600073ffffffffffffffffffffffffffffffffffffffff168473ffffffffffffffffffffffffffffffffffffffff161415612ca0576040517f2e07630000000000000000000000000000000000000000000000000000000000815260040160405180910390fd5b6000831415612cdb576040517fb562e8dd00000000000000000000000000000000000000000000000000000000815260040160405180910390fd5b612ce86000858386612c26565b82600660008673ffffffffffffffffffffffffffffffffffffffff1673ffffffffffffffffffffffffffffffffffffffff16815260200190815260200160002060000160008282829054906101000a900467ffffffffffffffff160192506101000a81548167ffffffffffffffff021916908367ffffffffffffffff16021790555082600660008673ffffffffffffffffffffffffffffffffffffffff1673ffffffffffffffffffffffffffffffffffffffff16815260200190815260200160002060000160088282829054906101000a900467ffffffffffffffff160192506101000a81548167ffffffffffffffff021916908367ffffffffffffffff160217905550836005600083815260200190815260200160002060000160006101000a81548173ffffffffffffffffffffffffffffffffffffffff021916908373ffffffffffffffffffffffffffffffffffffffff160217905550426005600083815260200190815260200160002060000160146101000a81548167ffffffffffffffff021916908367ffffffffffffffff160217905550600081905060008482019050612ea98673ffffffffffffffffffffffffffffffffffffffff16612864565b15612f6e575b818673ffffffffffffffffffffffffffffffffffffffff16600073ffffffffffffffffffffffffffffffffffffffff167fddf252ad1be2c89b69c2b068fc378daa952ba7f163c4a11628f55a4df523b3ef60405160405180910390a4612f1e6000878480600101955087612887565b612f54576040517fd1a57ed600000000000000000000000000000000000000000000000000000000815260040160405180910390fd5b808210612eaf578260015414612f6957600080fd5b612fd9565b5b818060010192508673ffffffffffffffffffffffffffffffffffffffff16600073ffffffffffffffffffffffffffffffffffffffff167fddf252ad1be2c89b69c2b068fc378daa952ba7f163c4a11628f55a4df523b3ef60405160405180910390a4808210612f6f575b816001819055505050612fef6000858386612c2c565b50505050565b60008082905060005b8451811015613085576000858281518110613042577f4e487b7100000000000000000000000000000000000000000000000000000000600052603260045260246000fd5b602002602001015190508083116130645761305d8382613090565b9250613071565b61306e8184613090565b92505b50808061307d90613e6b565b915050612ffe565b508091505092915050565b600082600052816020526040600020905092915050565b8280546130b390613e08565b90600052602060002090601f0160209004810192826130d5576000855561311c565b82601f106130ee57803560ff191683800117855561311c565b8280016001018555821561311c579182015b8281111561311b578235825591602001919060010190613100565b5b5090506131299190613170565b5090565b6040518060600160405280600073ffffffffffffffffffffffffffffffffffffffff168152602001600067ffffffffffffffff1681526020016000151581525090565b5b80821115613189576000816000905550600101613171565b5090565b60006131a061319b84613bb4565b613b8f565b9050828152602081018484840111156131b857600080fd5b6131c3848285613dc6565b509392505050565b6000813590506131da81614256565b92915050565b60008083601f8401126131f257600080fd5b8235905067ffffffffffffffff81111561320b57600080fd5b60208301915083602082028301111561322357600080fd5b9250929050565b6000813590506132398161426d565b92915050565b60008135905061324e81614284565b92915050565b6000813590506132638161429b565b92915050565b6000815190506132788161429b565b92915050565b600082601f83011261328f57600080fd5b813561329f84826020860161318d565b91505092915050565b60008083601f8401126132ba57600080fd5b8235905067ffffffffffffffff8111156132d357600080fd5b6020830191508360018202830111156132eb57600080fd5b9250929050565b600081359050613301816142b2565b92915050565b60006020828403121561331957600080fd5b6000613327848285016131cb565b91505092915050565b6000806040838503121561334357600080fd5b6000613351858286016131cb565b9250506020613362858286016131cb565b9150509250929050565b60008060006060848603121561338157600080fd5b600061338f868287016131cb565b93505060206133a0868287016131cb565b92505060406133b1868287016132f2565b9150509250925092565b600080600080608085870312156133d157600080fd5b60006133df878288016131cb565b94505060206133f0878288016131cb565b9350506040613401878288016132f2565b925050606085013567ffffffffffffffff81111561341e57600080fd5b61342a8782880161327e565b91505092959194509250565b6000806040838503121561344957600080fd5b6000613457858286016131cb565b92505060206134688582860161322a565b9150509250929050565b6000806040838503121561348557600080fd5b6000613493858286016131cb565b92505060206134a4858286016132f2565b9150509250929050565b6000806000806000608086880312156134c657600080fd5b600086013567ffffffffffffffff8111156134e057600080fd5b6134ec888289016131e0565b955095505060206134ff888289016132f2565b93505060406135108882890161322a565b9250506060613521888289016132f2565b9150509295509295909350565b60006020828403121561354057600080fd5b600061354e8482850161323f565b91505092915050565b60006020828403121561356957600080fd5b600061357784828501613254565b91505092915050565b60006020828403121561359257600080fd5b60006135a084828501613269565b91505092915050565b600080602083850312156135bc57600080fd5b600083013567ffffffffffffffff8111156135d657600080fd5b6135e2858286016132a8565b92509250509250929050565b60006020828403121561360057600080fd5b600061360e848285016132f2565b91505092915050565b61362081613d48565b82525050565b61363761363282613d48565b613eb4565b82525050565b61364681613d5a565b82525050565b61365d61365882613d5a565b613ec6565b82525050565b61366c81613d66565b82525050565b600061367d82613be5565b6136878185613bfb565b9350613697818560208601613dd5565b6136a081613ff3565b840191505092915050565b60006136b682613bf0565b6136c08185613c17565b93506136d0818560208601613dd5565b6136d981613ff3565b840191505092915050565b60006136ef82613bf0565b6136f98185613c28565b9350613709818560208601613dd5565b80840191505092915050565b6000613722602683613c17565b915061372d8261401e565b604082019050919050565b6000613745601383613c17565b91506137508261406d565b602082019050919050565b6000613768601583613c17565b915061377382614096565b602082019050919050565b600061378b602383613c17565b9150613796826140bf565b604082019050919050565b60006137ae601283613c17565b91506137b98261410e565b602082019050919050565b60006137d1602083613c17565b91506137dc82614137565b602082019050919050565b60006137f4602083613c17565b91506137ff82614160565b602082019050919050565b6000613817602983613c17565b915061382282614189565b604082019050919050565b600061383a600083613c0c565b9150613845826141d8565b600082019050919050565b600061385d601083613c17565b9150613868826141db565b602082019050919050565b6000613880601f83613c17565b915061388b82614204565b602082019050919050565b60006138a3601783613c17565b91506138ae8261422d565b602082019050919050565b6138c281613dbc565b82525050565b6138d96138d482613dbc565b613eea565b82525050565b60006138eb8286613626565b6014820191506138fb82856138c8565b60208201915061390b828461364c565b600182019150819050949350505050565b600061392882856136e4565b915061393482846136e4565b91508190509392505050565b600061394b8261382d565b9150819050919050565b600060208201905061396a6000830184613617565b92915050565b60006080820190506139856000830187613617565b6139926020830186613617565b61399f60408301856138b9565b81810360608301526139b18184613672565b905095945050505050565b60006020820190506139d1600083018461363d565b92915050565b60006020820190506139ec6000830184613663565b92915050565b60006020820190508181036000830152613a0c81846136ab565b905092915050565b60006020820190508181036000830152613a2d81613715565b9050919050565b60006020820190508181036000830152613a4d81613738565b9050919050565b60006020820190508181036000830152613a6d8161375b565b9050919050565b60006020820190508181036000830152613a8d8161377e565b9050919050565b60006020820190508181036000830152613aad816137a1565b9050919050565b60006020820190508181036000830152613acd816137c4565b9050919050565b60006020820190508181036000830152613aed816137e7565b9050919050565b60006020820190508181036000830152613b0d8161380a565b9050919050565b60006020820190508181036000830152613b2d81613850565b9050919050565b60006020820190508181036000830152613b4d81613873565b9050919050565b60006020820190508181036000830152613b6d81613896565b9050919050565b6000602082019050613b8960008301846138b9565b92915050565b6000613b99613baa565b9050613ba58282613e3a565b919050565b6000604051905090565b600067ffffffffffffffff821115613bcf57613bce613fc4565b5b613bd882613ff3565b9050602081019050919050565b600081519050919050565b600081519050919050565b600082825260208201905092915050565b600081905092915050565b600082825260208201905092915050565b600081905092915050565b6000613c3e82613dbc565b9150613c4983613dbc565b9250827fffffffffffffffffffffffffffffffffffffffffffffffffffffffffffffffff03821115613c7e57613c7d613f37565b5b828201905092915050565b6000613c9482613dbc565b9150613c9f83613dbc565b925082613caf57613cae613f66565b5b828204905092915050565b6000613cc582613dbc565b9150613cd083613dbc565b9250817fffffffffffffffffffffffffffffffffffffffffffffffffffffffffffffffff0483118215151615613d0957613d08613f37565b5b828202905092915050565b6000613d1f82613dbc565b9150613d2a83613dbc565b925082821015613d3d57613d3c613f37565b5b828203905092915050565b6000613d5382613d9c565b9050919050565b60008115159050919050565b6000819050919050565b60007fffffffff0000000000000000000000000000000000000000000000000000000082169050919050565b600073ffffffffffffffffffffffffffffffffffffffff82169050919050565b6000819050919050565b82818337600083830152505050565b60005b83811015613df3578082015181840152602081019050613dd8565b83811115613e02576000848401525b50505050565b60006002820490506001821680613e2057607f821691505b60208210811415613e3457613e33613f95565b5b50919050565b613e4382613ff3565b810181811067ffffffffffffffff82111715613e6257613e61613fc4565b5b80604052505050565b6000613e7682613dbc565b91507fffffffffffffffffffffffffffffffffffffffffffffffffffffffffffffffff821415613ea957613ea8613f37565b5b600182019050919050565b6000613ebf82613ed8565b9050919050565b6000613ed182613ef4565b9050919050565b6000613ee382614011565b9050919050565b6000819050919050565b6000613eff82614004565b9050919050565b6000613f1182613dbc565b9150613f1c83613dbc565b925082613f2c57613f2b613f66565b5b828206905092915050565b7f4e487b7100000000000000000000000000000000000000000000000000000000600052601160045260246000fd5b7f4e487b7100000000000000000000000000000000000000000000000000000000600052601260045260246000fd5b7f4e487b7100000000000000000000000000000000000000000000000000000000600052602260045260246000fd5b7f4e487b7100000000000000000000000000000000000000000000000000000000600052604160045260246000fd5b6000601f19601f8301169050919050565b60008160f81b9050919050565b60008160601b9050919050565b7f4f776e61626c653a206e6577206f776e657220697320746865207a65726f206160008201527f6464726573730000000000000000000000000000000000000000000000000000602082015250565b7f5465616d20616c7265616479206d696e74656400000000000000000000000000600082015250565b7f496e76616c6964204d65726b6c652050726f6f662e0000000000000000000000600082015250565b7f53616c65206d7573742062652061637469766520746f206d696e74204d656b6160008201527f6261650000000000000000000000000000000000000000000000000000000000602082015250565b7f72656163686564206d617820737570706c790000000000000000000000000000600082015250565b7f72656163686564206d6178206d696e7420706572207472616e73616374696f6e600082015250565b7f4f776e61626c653a2063616c6c6572206973206e6f7420746865206f776e6572600082015250565b7f4d656b61626165203a3a2043616e6e6f742062652063616c6c6564206279206160008201527f20636f6e74726163740000000000000000000000000000000000000000000000602082015250565b50565b7f5472616e73666572206661696c65642e00000000000000000000000000000000600082015250565b7f5265656e7472616e637947756172643a207265656e7472616e742063616c6c00600082015250565b7f496e73756666696369656e742066756e64732073656e74000000000000000000600082015250565b61425f81613d48565b811461426a57600080fd5b50565b61427681613d5a565b811461428157600080fd5b50565b61428d81613d66565b811461429857600080fd5b50565b6142a481613d70565b81146142af57600080fd5b50565b6142bb81613dbc565b81146142c657600080fd5b5056fea264697066735822122028968496605701918ea2475b7c28d93ec74a6a32fd61ca15a3f297b62d121e2964736f6c63430008040033",
  "linkReferences": {},
  "deployedLinkReferences": {}
}